:020000040801F1
:100000001051002051440108410201084302010837
:10001000470201084B0201084F02010800000000DE
:100020000000000000000000000000005302010872
:1000300055020108000000005F98010845430108CF
:100040006B4401086B4401086B4401083B1D010827
:100050006B4401086B4401086B4401086B440108C0
:100060006B4401086B4401086B4401086B440108B0
:100070006B4401086B4401086B4401086B440108A0
:100080006B4401086B4401086B4401086B44010890
:10009000D14201086B4401086B4401086B4401081C
:1000A0006B4401086B4401086B4401086B44010870
:1000B0003F320108CD3201086B4401086B4401084E
:1000C0006B4401086B4401086B4401086B44010850
:1000D0006B4401086B4401086B440108373C01087C
:1000E0006B4401086B4401086B4401086B44010830
:1000F0006B4401086B4401086B4401086B44010820
:100100006B4401086B4401086B4401086B4401080F
:100110006B4401086B4401086B4401086B440108FF
:100120006B4401086B4401086B4401086B440108EF
:1001300000F002F800F05FF80AA090E8000C82449A
:100140008344AAF10107DA4501D100F054F8AFF277
:10015000090EBAE80F0013F0010F18BFFB1A43F0A5
:100160000103184764A4000084A400000A444FF06F
:10017000000C10F8013B13F0070408BF10F8014B06
:100180001D1108BF10F8015B641E05D010F8016B4B
:10019000641E01F8016BF9D113F0080F1EBF10F8AF
:1001A000014BAD1C0C1B09D16D1E58BF01F801CBD2
:1001B000FAD505E014F8016B01F8016B6D1EF9D555
:1001C0009142D6D37047000000230024002500266A
:1001D000103A28BF78C1FBD8520728BF30C148BFAA
:1001E0000B607047642909F00384002070471FB535
:1001F0001FBD10B510BD09F026FE1146FFF7F7FF31
:1002000000F008F809F044FE03B4FFF7F2FF03BC66
:1002100009F048FE10B504F00FF904F09BF807F060
:1002200044FA0923044A0021044808F0CAFE07F0F2
:1002300061FB002010BD000004190020D934010822
:10024000704700BFFEE700BFFEE700BFFEE700BF4C
:10025000FEE77047704700000CB500200190009049
:100260006B48006840F480306949086000BF684806
:10027000006800F4003000900198401C0190009844
:1002800018B90198B0F5A06FF1D16148006810F479
:10029000003F02D00120009001E000200090009873
:1002A000012842D15B48006840F0100059490860BD
:1002B0000846006820F0030008600846006840F027
:1002C000020008605248406851494860084640684A
:1002D00048600846406840F48060486008464068CE
:1002E00020F47C1048600846406840F4E8104860FC
:1002F0000846006840F08070086000BF444800680D
:1003000010F0007FFAD04248406820F003004049D6
:1003100048600846406840F00200486000BF3C4822
:10032000406800F00C000828F9D10CBD10B5FFF7AB
:1003300093FF10BD10B53648006840F00100344905
:10034000086008464068344908403149486008461A
:100350000068324908402E4908600846006820F4C9
:10036000802008600846406820F4FE0048604FF492
:100370001F008860FFF7DAFF4FF00060284908602F
:1003800010BD10B5002100200022214B5B6803F056
:100390000C0121B1042906D0082928D107E0214BFE
:1003A000214C236027E01F4B1F4C236023E0184B98
:1003B0005B6803F47010164B5B6803F48032022311
:1003C00003EB904022B9194B4343174C23600DE0D7
:1003D0000F4B5B6813F4003F04D0144B4343124CA3
:1003E000236003E00F4B43430F4C236003E00D4BAE
:1003F0000D4C236000BF00BF054B5B68C3F30313C4
:100400000B4CE15C084B1B68CB40074C236010BDD4
:1004100000100240002002400000FFF8FFFFF6FE3F
:1004200008ED00E000127A000000002000093D0005
:100430000400002001B500988000009002E00098C0
:10044000401E009000980028F9D108BD08B5012190
:10045000502004F0A1FB10208DF8030003208DF83C
:1004600002004FF4A050ADF800006946314804F096
:10047000DDF848208DF8030003208DF802004FF4CA
:100480000060ADF8000069462A4804F0CFF810205B
:100490008DF8030003208DF802000120ADF8000064
:1004A0006946254804F0C2F808BD00B5014600229F
:1004B0001DE011F0800F04D04FF480501D4B1861E7
:1004C00003E04FF480501B4B58610620FFF7B2FF4A
:1004D0004FF48060174B18614806010E0620FFF7A5
:1004E000A9FF4FF48060134B5861501CC2B2082A18
:1004F000DFDB00BD70B50024002517E06006040EA8
:100500004FF400610B4804F022F904434FF480607B
:10051000084908610620FFF78DFF4FF48060054908
:1005200048610620FFF786FF681CC5B2082DE5DB91
:10053000204670BD001001400018014000B587B092
:10054000012141F2040004F027FBE020ADF818007F
:1005500018208DF81B0003208DF81A0006A93948D1
:1005600004F064F8E021374804F00BF91020ADF8EE
:10057000180003208DF81A0010208DF81B0006A922
:10058000304804F053F80020ADF804004FF48270B6
:10059000ADF806000020ADF808000220ADF80A0012
:1005A0000120ADF80C004002ADF80E003820ADF887
:1005B00010000020ADF812000720ADF8140001A9CA
:1005C000214804F077FB01211F4804F018FC07B014
:1005D00000BD10B504461C4800884FF6C77108409E
:1005E00019490880084600882043088001211648E0
:1005F00004F005FC10BD70B50546002405E0601C44
:10060000C4B2C82C01DD002070BD02210E4804F0E8
:100610007AFC0028F3D029460B4804F021FC002482
:1006200005E0601CC4B2C82C01DD0020ECE701210C
:10063000054804F068FC0028F3D0034804F012FCDD
:10064000C0B2E1E7000801400030014000B587B0CA
:100650000121082004F0A0FA0121880304F0A9FA7E
:100660004FF46040ADF8180018208DF81B000320EF
:100670008DF81A0006A93A4803F0D8FF4FF46041FC
:10068000374804F07EF84FF48050ADF8180003208E
:100690008DF81A0010208DF81B0006A9304803F0D1
:1006A000C5FF0020ADF804004FF48270ADF80600DD
:1006B0000020ADF808000220ADF80A000120ADF8D6
:1006C0000C004002ADF80E003820ADF810000020FC
:1006D000ADF812000720ADF8140001A9214804F07C
:1006E000E9FA01211F4804F08AFB07B000BD10B5EC
:1006F00004461C4800884FF6C77108401949088015
:1007000008460088204308800121164804F077FB42
:1007100010BD70B50546002405E0601CC4B2C82CAD
:1007200001DD002070BD02210E4804F0ECFB002822
:10073000F3D029460B4804F093FB002405E0601C2D
:10074000C4B2C82C01DD0020ECE70121054804F00B
:10075000DAFB0028F3D0034804F084FBC0B2E1E7E1
:10076000000C01400038004008B50121102004F0C1
:1007700013FA3020ADF8000010208DF8030003209C
:100780008DF802006946154803F050FF1021134808
:1007900003F0F9FF2021114803F0F5FF08BD70B503
:1007A00005460C4615F0010F09D024B110210B4865
:1007B00003F0E7FF03E01021084803F0E4FF15F021
:1007C000020F09D024B12021044803F0DAFF03E02E
:1007D0002021024803F0D7FF70BD00000010014047
:1007E000014606E042F6E06001E0421E90B20028B9
:1007F000FBDC0A00A1F1010399B2F3D1704708B5FF
:100800000121202004F0C8F94FF48050ADF8000019
:1008100010208DF8030003208DF8020069460C4873
:1008200003F004FF4FF48051094803F0ACFF08BD0A
:1008300010B504464FF48051054803F0A2FF20464E
:10084000FFF7CEFF4FF48051014803F09CFF10BD2D
:100850000014014008B501211C2004F09DF910206E
:100860008DF8030003208DF8020040F20F70ADF800
:1008700000006946534803F0D9FE10208DF80300AC
:1008800003208DF802000002ADF8000069464E48D2
:1008900003F0CCFE10208DF8030003208DF8020039
:1008A0004FF40070ADF800006946484803F0BEFE02
:1008B0004FF40071454803F064FF0121414803F003
:1008C00060FF08BD10B54FF40071404803F05BFFB6
:1008D0000A2003F088FD4FF400713C4803F051FFFB
:1008E00010BD10B50446FFF7EDFF14F0010F04D062
:1008F0000221344803F045FF03E00221314803F0B0
:1009000042FF14F0020F04D004212E4803F039FFF7
:1009100003E004212B4803F036FF14F0040F04D049
:100920000821284803F02DFF03E00821254803F0A3
:100930002AFF14F0080F05D04FF40071214803F08E
:1009400020FF04E04FF400711E4803F01CFF14F078
:10095000100F05D04FF480611A4803F012FF04E035
:100960004FF48061174803F00EFF14F0200F05D0FC
:100970004FF48071144803F004FF04E04FF48071D9
:10098000114803F000FF14F0400F05D04FF4007140
:100990000D4803F0F6FE04E04FF400710A4803F03E
:1009A000F2FE0A2003F01FFD0121064803F0EBFED2
:1009B0004FF4FA7003F017FD0121024803F0E1FE45
:1009C00010BD000000080140000C01400010014073
:1009D00001B5009800EB40004000009002E0009854
:1009E000401E009000980028F9D108BD014606E09D
:1009F00042F6E06001E0421E90B20028FBDC0A00F3
:100A0000A1F1010399B2F3D1704710B50221F84862
:100A100003F0B9FE6420FFF7E9FF0221F44803F078
:100A2000B0FE10BD08B50121602004F0B5F810201B
:100A30008DF8030003208DF8020040F20240ADF86B
:100A400000006946EA4803F0F1FD4FF48061E84890
:100A500003F097FEFFF7D9FF08BD08B510208DF809
:100A6000030003208DF802004FF40960ADF8000088
:100A70006946E04803F0DAFD48208DF803000320C2
:100A80008DF802002020ADF800006946D94803F037
:100A9000CDFD4FF40061D74803F073FE08BD08B5E3
:100AA00010208DF8030003208DF802004FF4096038
:100AB000ADF800006946CF4803F0B8FD48208DF836
:100AC000030003208DF802002020ADF800006946E5
:100AD000C84803F0ABFD4FF40061C64803F051FE77
:100AE00008BD70B504464FF48061C14803F049FE6B
:100AF000142003F078FC4FF48061BD4803F043FEFE
:100B0000052003F070FC002523E04FF48061B84815
:100B100003F037FE14F0010F0CD04FF4167003F001
:100B20003FFC4FF48061B24803F02DFEC82003F073
:100B300037FC0BE0C82003F033FC4FF48061AC4875
:100B400003F021FE4FF4167003F02AFC6410681CB9
:100B5000C5B2082DD9DB4FF48061A54803F011FE22
:100B600070BD70B50024002516E06006040E20213B
:100B7000A04803F0ECFD044380219E4803F001FEF1
:100B80000620FFF725FF80219A4803F0FCFD062090
:100B9000FFF71EFF681CC5B2082DE6DB204670BDBE
:100BA00070B504460D46002605E0FFF7DAFF207019
:100BB000641C701C86B2AE42F7DB70BD70B5044693
:100BC000002520E00620FFF703FF14F0800F04D07B
:100BD0001021884803F0D5FD03E01021854803F07B
:100BE000D2FD0620FFF7F4FE8021824803F0C9FD04
:100BF0006006040E0620FFF7EBFE80217D4803F01F
:100C0000C2FD681CC5B2082DDCDB70BD08B54FF411
:100C10000061784803F0B7FD9F20FFF7CFFFFFF793
:100C2000A0FF8DF80000FFF79CFF8DF80100FFF793
:100C300098FF8DF802004FF400616E4803F0A1FDAB
:100C400008BD10B54FF400616A4803F09CFD052013
:100C5000FFF7B4FFFFF785FF04464FF400616548D6
:100C600003F08FFD204610BD10B5012402E0FFF710
:100C7000E8FF044614F0010FF9D110BD10B54FF490
:100C800000615C4803F07FFD0620FFF797FF4FF4FB
:100C90000061584803F075FD10BD10B54FF40061B8
:100CA000544803F070FD0420FFF788FF4FF4006103
:100CB000504803F066FDFFF7D7FF10BD70B505463D
:100CC0002C03FFF7DBFF4FF400614A4803F05BFDA4
:100CD0002020FFF773FFC4F30740FFF76FFFC4F353
:100CE0000720FFF76BFFE0B2FFF768FF4FF40061EA
:100CF000404803F046FDFFF7D0FFFFF7B5FF70BD9A
:100D000010B5FFF7BBFF4FF400613A4803F03BFD1D
:100D10006020FFF753FF4FF40061364803F031FDC8
:100D2000FFF7BBFFFFF7A0FF10BD70B505460E46ED
:100D3000002409E02819B0F5007F03DA291988B2E8
:100D4000FFF7BCFF601C84B2B442F3DB70BD2DE939
:100D5000F04104460E4617464FF40061254803F063
:100D600012FD0320FFF72AFFC4F30740FFF726FF19
:100D7000C4F30720FFF722FFE0B2FFF71FFF0025B3
:100D800004E0FFF7EEFE7055681C85B2BD42F8DB4B
:100D90004FF40061174803F0F4FCFFF765FFBDE86E
:100DA000F0812DE9F04104460E461546FFF75CFF41
:100DB000FFF764FF34E04FF400610E4803F0E3FCFA
:100DC0000220FFF7FBFEC4F30740FFF7F7FEC4F372
:100DD0000720FFF7F3FEE0B2FFF7F0FEB5F5807FE6
:100DE00002DD4FF4807000E028468046002709E0CD
:100DF00000180140001401403078FFF7DFFE761C38
:100E0000781C87B24745F7D34FF40061964803F04A
:100E1000B8FCFFF729FF04F58074A5EB080085B244
:100E2000002DC8D1FFF739FFBDE8F0812DE9F05F53
:100E300006460F4614464FF00008C146C24600253C
:100E4000AB4606F0FF0ACAF10000C5B22046E11722
:100E500004EB1161C1F30728E11704EB11610912DA
:100E6000A4EB012101F0FF09BAF1000F20D1B8F184
:100E7000000F05D1224639463046FFF792FF64E065
:100E800009E04FF4807239463046FFF78AFF06F5D5
:100E9000807607F580775FEA0800A8F1010101F08C
:100EA000FF08EED14A4639463046FFF77AFF4CE05C
:100EB000B8F1000F18D1A94510DDA9EB050000F02D
:100EC000FF0B2A4639463046FFF76BFF2E442F446E
:100ED0005A4639463046FFF764FF36E02246394627
:100EE0003046FFF75EFF30E0601B84B22046E1171A
:100EF00004EB1161C1F30728E11704EB116109123A
:100F0000A4EB012101F0FF092A4639463046FFF7DC
:100F100048FF2E442F4409E04FF480723946304692
:100F2000FFF73FFF06F5807607F580775FEA080058
:100F3000A8F1010101F0FF08EED1B9F1000F04D0D2
:100F40004A4639463046FFF72CFFBDE8F09F10B502
:100F50004FF400710020FFF7E8FE10BD70B50446A5
:100F60000D46FFF781FE05F58030401EC0F30746B1
:100F70001FE0FFF783FE4FF400613B4803F003FCE2
:100F8000D820FFF71BFEC4F30740FFF717FEC4F39A
:100F90000720FFF713FEE0B2FFF710FE4FF40061E9
:100FA000314803F0EEFBFFF75FFEFFF776FE04F536
:100FB00080343000A6F10101CEB2DAD170BD70B537
:100FC0004FF400110020FFF7C9FF002413E0204672
:100FD0004FF480722549FFF7BAFE002507E0234849
:100FE00050F82500401C01D0012070BD6D1C402D23
:100FF000F5D304F58074B4F5001FE8D30020F4E7BE
:101000002DE9F04104460D4616460027A702B5F526
:10101000806F0CDA4FF4806231463846FFF706FFE6
:1010200000201349087013A002F038FE08E04FF4C6
:10103000806231463846FFF7F9FE0FA002F02EFE1F
:10104000BDE8F08170B500250DB1FFF759FE002411
:1010500007E0A0024FF480620949FFF778FE601CA8
:10106000C4B2FF2CF5DB70BD001401409C050020CC
:10107000140000204F4B00004E6578740000000003
:101080009C01002010B5FFF735FA10BD10B50446DD
:101090002046FFF70AFA10BD10B5FFF7D7F9012077
:1010A000F949086010BD10B50120F749091D086015
:1010B0000520FFF7EBFFFFF7E5FF04460120F249AB
:1010C0000860204610BD10B50120EF49091D0860D9
:1010D0009020FFF7DBFF0020FFF7D8FF0020FFF78D
:1010E000D5FF0020FFF7D2FFFFF7CCFFE7490870DC
:1010F000FFF7C8FFE64908700120E349086010BD0A
:1011000010B5012402E0FFF7CEFF044614F0010FF2
:10111000F9D110BD10B50120DB49091D086006207A
:10112000FFF7B4FF0120D849086010BD10B50120B9
:10113000D549091D08600420FFF7A8FF0120D24906
:101140000860FFF7DDFF10BD10B50120CE49091D75
:1011500008605020FFF79AFF0120CB490860091D65
:101160000860FFF793FF0020FFF790FF0120C649BA
:101170000860FFF7C5FF10BD2DE9F04104460E469B
:10118000174600250120C049091D08600B20FFF704
:101190007DFFC4F30740FFF779FFC4F30720FFF793
:1011A00075FFE0B2FFF772FF0020FFF76FFF03E06B
:1011B000FFF768FF70556D1CBD42F9D30120B2499D
:1011C0000860BDE8F08110B50446FFF7BDFFFFF7EA
:1011D000A1FF0120AC49091D08602020FFF756FF40
:1011E000C4F30740FFF752FFC4F30720FFF74EFF99
:1011F000E0B2FFF74BFF0120A3490860FFF780FF33
:1012000010BD70B505460E46002405E029190803F7
:10121000FFF7D9FF601C84B2B442F7DB70BD2DE943
:10122000F04105460C46904600272846FFF7CBFFC5
:10123000FFF78AFFFFF76EFF01209349091D086041
:10124000AD20FFF723FFC5F30740FFF71FFFC5F3EE
:101250000720FFF71BFFE8B2FFF718FF2078FFF722
:1012600015FF6078FFF712FF012087490860022709
:1012700018E0782600E0761E002EFCD1012082497D
:10128000091D0860AD20FFF701FF39467F1C605C37
:10129000FFF7FCFE39467F1C605CFFF7F7FE01207C
:1012A000794908604745E4D3642600E0761E002EA5
:1012B000FCD1FFF73BFF01207349091D0860FFF7D0
:1012C0001FFFBDE8F0812DE9F04105460C461746A9
:1012D0000026FFF739FFFFF71DFF01206A49091DAE
:1012E0000860AD20FFF7D2FEC5F30740FFF7CEFE42
:1012F000C5F30720FFF7CAFEE8B2FFF7C7FE207864
:10130000FFF7C4FE6078FFF7C1FE01205E49086068
:1013100002261BE04FF0780801E0A8F10108B8F1BF
:10132000000FFAD101205849091D0860AD20FFF7D0
:10133000ADFE3146761C605CFFF7A8FE3146761C98
:10134000605CFFF7A3FE01204F490860BE42E1D375
:10135000FFF7ECFE01204C49091D0860FFF7D0FEA5
:10136000BDE8F0812DE9F0470646884614464FEA6D
:101370001639C6F30B0ACAF58055AC4200DC254687
:101380002BE04FEA09304FF480524249FFF7F4FE58
:10139000002707E018F8070007EB0A013D4A505400
:1013A000781C87B2AF42F5DB4FEA09304FF4805228
:1013B0003849FFF734FFAC4200D10FE009F10109D1
:1013C0004FF0000AA8442E44601B84B2B4F5805F3D
:1013D00002DD4FF4805500E02546D2E700BFBDE8AE
:1013E000F0872DE9F04188B005460F46164605F511
:1013F0007C68012269464046FFF7BEFE9DF800006A
:10140000FA2802D12846FFF7DEFE002446E005EB6D
:101410008418012269464046FFF7AEFE9DF80000A1
:10142000FF2812D1FA208DF80000324639460DF11E
:10143000010008F0CCFB05EB8410721C6946FFF735
:1014400042FF012008B0BDE8F0819DF80000FA28B5
:1014500022D1F2208DF8000005EB841001226946AC
:10146000FFF731FFFA208DF80000324639460DF1C2
:10147000010008F0ACFB611C05EB8110721C694691
:10148000FFF721FF0120DDE71018014016000020C2
:10149000170000209C060020601CC4B2402CB6DB64
:1014A0000020CFE72DE9F04188B005468846164672
:1014B00000241CE005EB8417012269463846FFF73B
:1014C0005BFE9DF80000FF2804D11CB9002008B085
:1014D000BDE8F0819DF80000FA2806D1721C414653
:1014E0003846FFF749FE0120F1E7601CC4B2402CEA
:1014F000E0DB0020EBE710B500201949088026E06A
:1015000017490988880110221649FFF735FE102275
:1015100014494FF4C910FFF764FF102212494FF429
:10152000C910FFF7BFFF10220F49491C0D4808F0F2
:1015300022FB38B100244FF480520C494FF4C910FB
:10154000FFF71AFE06480088401C05490880044839
:10155000008840F6B8318842D2DB0124204610BD15
:10156000180000209C160020BC1600209C060020BD
:1015700001B5009800EB8000009002E00098401E4A
:10158000009000980028F9D108BD08B5012160201D
:1015900003F002FB10208DF8030003208DF80200F9
:1015A0004FF40070ADF800006946CE4803F03EF8F5
:1015B00010208DF8030003208DF802004FF4F04056
:1015C000ADF800006946C84803F030F808BD4FF494
:1015D0008042C54B14331A6092101A60002118E043
:1015E00010F0800F05D04FF40062BF4B10331A602B
:1015F00004E04FF40062BC4B14331A604FF40072E5
:10160000B84B14331A601B1F1A604206100E4A1C96
:10161000D1B20829E4DB4FF48042B34B10331A6097
:1016200070474FF48042B04B14331A6092101B1F66
:101630001A60002118E010F0800F05D04FF400620E
:10164000A94B10331A6004E04FF40062A64B143328
:101650001A604FF40072A34B14331A601B1F1A60F8
:101660004206100E4A1CD1B20829E4DB4FF4804236
:101670009D4B10331A60704730B5002418E00020ED
:10168000FFF7A5FF04F1B001C8B2FFF7A0FF0020EB
:10169000FFF79DFF1020FFF79AFF002504E00020D0
:1016A000FFF7BFFF681CC5B2812DF8DB601CC4B218
:1016B000082CE4DB30BD30B5002418E00020FFF733
:1016C00086FF04F1B001C8B2FFF781FF0020FFF7E9
:1016D0007EFF1020FFF77BFF002504E0F020FFF7DE
:1016E000A0FF681CC5B2802DF8DB601CC4B2082CBA
:1016F000E4DB30BD10B5FFF748FF4FF400507A49E6
:10170000103108601E20FFF733FF4FF40050764978
:10171000143108601E20FFF72BFF4FF40050724970
:10172000103108606420FFF723FFE220FFF74FFF2E
:101730000A20FFF71DFFA220FFF749FFA020FFF7B7
:1017400046FFC820FFF743FFF820FFF740FF0020C7
:10175000FFF73DFF2320FFF73AFF8120FFF737FF18
:101760003F20FFF734FF2F20FFF731FFB020FFF7B6
:101770002EFFAF20FFF72BFFA620FFF728FFFFF774
:101780007BFF10BD30B504460D46681C85B2042CA5
:1017900005DA04F1B401C8B2FFF719FF04E004F15F
:1017A000AC01C8B2FFF713FFC5F3031101F110003C
:1017B000FFF70DFF05F00F00FFF709FF30BD2DE922
:1017C000FF47054689461646A6F120014FF4A712A9
:1017D00002EB011010226946FFF7CEFCE846002418
:1017E00012E0291988B24946FFF7CCFF002707E02D
:1017F00098F80000FFF715FF08F10108781CC7B240
:10180000082FF5DB601CC4B2022CEADBBDE8FF87C1
:101810002DE9F04788B00646894614466078A0F165
:10182000A1012078A1385E2202FB00104FF4801144
:1018300001EB401A202269465046FFF79DFCE8461E
:10184000002512E0711988B24946FFF79BFF002777
:1018500007E098F80000FFF7E4FE08F10108781CA3
:1018600087B2102FF5DB681C85B2022DEADB08B0C9
:10187000BDE8F0872DE9F04106460D4614460027E5
:1018800019E077B92078802801DD012713E022785C
:10189000E9B23046FFF793FF641C05F1080085B2FA
:1018A00009E00027224629463046FFF7B1FFA41C75
:1018B00005F1100085B220780028E2D1BDE8F08162
:1018C00070B504460D461646002C0ADD052C08DAD4
:1018D000782D06DA611E4906080E32462946FFF7C2
:1018E000C9FF70BD0014014000180140014608887E
:1018F000704770B586B006460D4600240AE01F49C1
:10190000022202FB0410FFF7F1FF01A921F81400E5
:10191000601CC4B2082CF2DB3046FFF7E7FFA84298
:101920001BD004F0C4FA304604F006FB3046C0F386
:10193000470401A820F8145000240AE001AA32F854
:1019400014100E4A022303FB042004F0F8FB601C71
:10195000C4B2082CF2DB04F0B6FA042004F0D9FA81
:101960000749087004E0042004F0D3FA0449087021
:10197000034800780028F6D006B070BD00FC0008CF
:101980001A00002008B503208DF8000001208DF812
:1019900001008DF802008DF80300684602F07DFD1D
:1019A00008BDF0B503460C461546642093FBF0F0E5
:1019B000C6B2642093FBF0F700FB1730C1B2132EC0
:1019C00002DD01F16400C1B20846CF1701EB977741
:1019D00001EBA702072092FBF0F700FB172082B271
:1019E0005719601EDFF888C31CF80000384482B223
:1019F000CF1701EB9777BF10B1EB870703D1032C0B
:101A000001DA501E82B2072092FBF0F700FB17208C
:101A1000C0B2F0BD0146CA1701EB92729210B1EB51
:101A2000820212D1642091FBF0F200FB121050B937
:101A30004FF4C87091FBF0F200FB121008B90120BE
:101A400070470020FCE70120FAE70020F8E770B5B6
:101A500000260024002504F06FFD0646C548B6FBAD
:101A6000F0F4C5480088A0423CD0C3490C8040F245
:101A7000B27510E02846FFF7CDFF40B1B4F5B77F4F
:101A800002D3A4F5B77404E0681C85B206E0A4F2A2
:101A90006D14681C85B2B4F5B67FEBD800BFB748AB
:101AA0008580002516E0B5498888FFF7B3FF30B17F
:101AB000012D04D11D2C01D31D3C09E00CE0B048E0
:101AC000405DA04203D8AE48405D241A00E003E028
:101AD000681C85B21C2CE6D200BF681CA74988711F
:101AE000601CC871A348B6FBF0F100FB11644FF411
:101AF0006160B4FBF0F0A14908704FF46160B4FB81
:101B0000F0F100FB11403C21B0FBF1F09B49487023
:101B10004FF46160B4FBF0F100FB11403C21B0FBDD
:101B2000F1F201FB1200954988700B46DA79997938
:101B30009888FFF736FF914908720846808840F27E
:101B4000DA71884204DB8D488088B0F5FF6F01DDD3
:101B5000012070BD8948807918B1884880790C28A7
:101B600001DD0120F5E78548C07918B18348C079C7
:101B70001F2801DD0120ECE780480078172807DCEA
:101B80007E4840783B2803DC7C4880783B2801DD98
:101B90000120DEE70020DCE72DE9F05F07460E4676
:101BA00090469946DDE90AAB002440F2DA7087429C
:101BB00002DBB7F5FF6F02DD0120BDE8F09F0EB13B
:101BC0000C2E01DD0120F8E7B8F1000F02D0B8F1CA
:101BD0001F0F01DD0120F0E7B9F1170F05DCBAF1A5
:101BE0003B0F02DCBBF13B0F01DD0120E5E740F2DA
:101BF000B2750AE02846FFF70DFF10B161480444B2
:101C000001E061480444681C85B2BD42F2DB701EED
:101C1000C6B2002510E05A48405D40F2A321484377
:101C200004EBC0143846FFF7F5FE18B1012D01D1C1
:101C300050480444681C85B2B542ECDBA8F10100B1
:101C400040F2A321484304EBC014C9EB4910C0EB98
:101C5000092004EB0014CAEB0A1004EB80045C4476
:101C600001214FF0C05002F0A4FF012004F0E9FB75
:101C7000204604F06AFC04F09BFC00209DE71CB5A4
:101C80000024042003F0AFFBA0F52041A03946D08A
:101C900001214FF0C05002F08CFF012004F0D1FB75
:101CA00003F06CFB012002F0E7FE04E0601CC4B20C
:101CB0000A2002F098FB412002F047FE0028F5D0F0
:101CC000FA2C01DB01201CBD4FF4807002F0EDFE08
:101CD000012002F0F0FE04F06BFC04F071FC012125
:101CE000084604F009FC04F063FC04F012FC47F61B
:101CF000FF7004F037FC04F05BFC1E200521092373
:101D00000422CDE9001040F2DF70FFF745FF04F038
:101D100009FC4AF2A001042003F059FB07E004F09B
:101D20004FFC0121084604F0E7FB04F041FCFFF7FB
:101D300029FEFFF78CFE0020C5E710B5002407F050
:101D400067FD0446012004F05FFC08B1FFF77FFE49
:101D5000022004F059FC10B1022004F065FC0520BB
:101D600004F062FC04F024FC204607F055FD10BD91
:101D7000C09E0108805101001C000020FE160020BA
:101D8000CC9E01080085E2018033E10101B5009895
:101D900000EB8000009002E00098401E0090009848
:101DA0000028F9D108BD08B50121202002F0F4FE79
:101DB00010208DF8030003208DF802004EF2014040
:101DC000ADF800006946CC4802F030FC0120CA4959
:101DD0001031086008BD0122C74B14331A6092030A
:101DE0001A60002118E010F0800F05D04FF48062D7
:101DF000C14B10331A6004E04FF48062BE4B1433C1
:101E00001A604FF40052BC4B14331A601B1F1A6047
:101E10004206100E4A1CD1B20829E4DB0122B64B5F
:101E200010331A6070470122B34B14331A609203C7
:101E30001B1F1A60002118E010F0800F05D04FF42E
:101E40008062AD4B10331A6004E04FF48062AA4BFD
:101E500014331A604FF40052A74B14331A601B1F3F
:101E60001A604206100E4A1CD1B20829E4DB012296
:101E7000A14B10331A60704730B5002415E004F10F
:101E8000B001C8B2FFF7A7FF1020FFF7A4FF0020A2
:101E9000FFF7A1FF002504E00020FFF7C4FF681C46
:101EA000C5B2802DF8DB601CC4B2082CE7DB30BD66
:101EB00030B5002415E004F1B001C8B2FFF78BFF84
:101EC0001020FFF788FF0020FFF785FF002504E0C2
:101ED000FF20FFF7A8FF681CC5B2802DF8DB601C4F
:101EE000C4B2082CE7DB30BD10B5FFF75CFF4FF440
:101EF00000408149103108601E20FFF747FF4FF472
:101F000000407D49143108601E20FFF73FFF4FF469
:101F100000407949103108606420FFF737FFAE2098
:101F2000FFF759FFA120FFF756FFDA20FFF753FF15
:101F30001220FFF750FFC820FFF74DFFA820FFF742
:101F40004AFF3F20FFF747FFD520FFF744FF7020EF
:101F5000FFF741FF8120FFF73EFF7020FFF73BFFB7
:101F6000D920FFF738FF2220FFF735FF2020FFF7A9
:101F700032FF0220FFF72FFFDB20FFF72CFF3C2072
:101F8000FFF729FFAD20FFF726FF8E20FFF723FF85
:101F9000A420FFF720FFA620FFF71DFFAF20FFF7CB
:101FA0001AFFFFF769FF10BD30B505460C46601CEF
:101FB00084B205F1B001C8B2FFF70DFFC4F30311FD
:101FC00001F11000FFF707FF04F00F00FFF703FF18
:101FD00030BD2DE9FF47054689461646A6F120018A
:101FE0004FF4A71202EB011010226946FFF7C4F864
:101FF000E846002412E0291988B24946FFF7D4FFC9
:10200000002707E098F80000FFF70DFF08F101082E
:10201000781CC7B2082FF5DB601CC4B2022CEADBC7
:10202000BDE8FF872DE9F04788B00646894614468B
:102030006078A0F1A1012078A1385E2202FB001097
:102040004FF4801101EB401A202269465046FFF7F9
:1020500093F8E846002512E0711988B24946FFF767
:10206000A3FF002707E098F80000FFF7DCFE08F167
:102070000108781C87B2102FF5DB681C85B2022D91
:10208000EADB08B0BDE8F0872DE9F04106460D46D1
:102090001446002719E077B92078802801DD012750
:1020A00013E02278E9B23046FFF793FF641C05F194
:1020B000080085B209E00027224629463046FFF78E
:1020C000B1FFA41C05F1100085B220780028E2D1F0
:1020D000BDE8F08170B504460D461646002C0ADDB9
:1020E000052C08DA782D06DA611E4906080E3246FC
:1020F0002946FFF7C9FF70BD00140140002103E02D
:1021000000BF00BF00BF491C8142F9D3704770B5C2
:10211000044600261020FE4908607E2000EA4400A4
:1021200040F080052846FEF766FA0020FEF763FAC5
:1021300006461020F649091F0860304670BD70B58C
:1021400004460D461020F24908607E2000EA44064D
:102150003046FEF750FA2846FEF74DFA1020EC49BB
:10216000091F086070BD70B505460C46002628465C
:10217000FFF7CDFF064646EA04012846FFF7DFFFDA
:1021800070BD70B505460C4600262846FFF7BFFF18
:10219000064626EA04012846FFF7D1FF70BD10B5B8
:1021A0001420FFF7B4FF044614F0030F03D10321FA
:1021B0001420FFF7D8FF10BD10B503211420FFF73E
:1021C000E0FF10BD10B54020D24908610A20FFF79A
:1021D00095FF4020CF4948610A20FFF78FFF40203C
:1021E000CC4908610A20FFF789FF0F210120FFF782
:1021F000A6FF0F210120FFF7A2FF0A20FFF77EFFB5
:102200003D211120FFF79BFF1E212D20FFF797FF97
:1022100000212C20FFF793FF8D212A20FFF78FFF4D
:102220003E212B20FFF78BFF40211520FFF787FF72
:10223000002010BD10B50446412C26D108210846C7
:10224000FFF79FFF3D211120FFF779FF862117201F
:10225000FFF775FF7F212620FFF771FF1E212D203C
:10226000FFF76DFF00212C20FFF769FF8D212A2049
:10227000FFF765FF3E212B20FFF761FF4FF47A70D7
:10228000FFF73CFFFFF78BFF01E0012010BD0020AE
:10229000FCE708B50121102002F07EFC4020ADF8DB
:1022A000000003208DF8020010208DF8030069461D
:1022B000984802F0BBF9FEF741F9FFF783FFFFF7FB
:1022C0007BFF022002F08FF8FFF769FF4120FFF744
:1022D000B1FF08BD10B5FFF775FFFFF76DFF0220D6
:1022E00002F081F8FFF75BFF10BD2DE9F0410746D2
:1022F0008846154604210520FFF743FF00210120F1
:10230000FFF71DFF80210A20FFF72DFF002405E0C5
:10231000395D0920FFF713FF601CC4B24445F7DBA9
:1023200003210120FFF70BFFFF2400BF0520FFF76B
:10233000EEFE0646601EC4B214B116F0040FF5D0CE
:102340002220FFF7E4FE28702120FFF7E0FE6870EE
:10235000BDE8F0812DE9FE4F0646884691469A4633
:10236000DDF830B0022002900020019000900C2E89
:1023700006D00E2E09D1122001901020009005E009
:10238000772001903020009000E000BF00BF01984E
:1023900040F080010220FFF7D2FE80210420FFF7E9
:1023A000F0FE00210120FFF7CAFE80210A20FFF77E
:1023B000DAFE002506E018F805100920FFF7BFFE39
:1023C000681C85B24D45F6DB31460120FFF7B7FEAC
:1023D0000120FFF79CFE04460C2E03D180210D2026
:1023E000FFF7C1FE4FF4FA6500BF0420FFF78FFE30
:1023F0000446681E85B22DB114F0010F02D1009879
:102400000442F2D080210D20FFF7BBFE002D37D013
:102410000620FFF77CFE10F01B0F2FD1002002904A
:102420000198204010F0010F01D0012002900C2EE5
:1024300026D10A20FFF76BFE04460C20FFF767FE4B
:1024400000F007072FB1601E07EBC0008BF80000FB
:1024500003E0E006000E8BF8000004B90124402CD4
:1024600000DD4024002506E00920FFF750FE0AF8B1
:102470000500681C85B2A542F6DB01E0022002904F
:1024800080210C20FFF76FFE00210120FFF757FE8F
:102490000298BDE8FE8F70B592B005460C46082143
:1024A0000846FFF76EFE07210D20FFF748FE0321C7
:1024B0001420FFF758FE8DF8045011A801AB01223B
:1024C00001A900900C20FFF745FF064656B99DF87C
:1024D0004400102806D19DF8040020709DF80500E6
:1024E000607000E00226304612B070BDF0B593B0C7
:1024F0000546002708210846FFF743FE00210D206E
:10250000FFF71DFE80210E20FFF73BFE932003E026
:1025100014080140001001408DF8080020208DF8BB
:10252000090012A802AB022202A900900C20FFF7BA
:1025300011FF064686B9002407E002A8005D285571
:1025400002A8005D4740601CC4B2042CF5DB02A861
:10255000005DB84200D0022680210E20FFF703FE66
:10256000304613B0F0BD70B592B0054693208DF89B
:10257000040070208DF8050000208DF80A0000246A
:102580000BE0295D01AAA01C11549DF80A00295DE9
:1025900048408DF80A00601CC4B2042CF1DB0DF138
:1025A0000B02072101A8FFF7A0FE08210846FFF74C
:1025B000E8FD11A801AB092201A900900C20FFF74A
:1025C000C9FE06462EB99DF84400182801D1002600
:1025D00000E00226304612B070BD2DE9F04192B005
:1025E00004460D4616461F468DF804408DF80550EA
:1025F0003068CDF80600B088ADF80A00386803905E
:1026000011A801AB0C2201A900900E20FFF7A2FE39
:102610008046B8F1000F05D10820FFF778FD10F0D3
:10262000080F01D14FF00208404612B0BDE8F0811A
:10263000F0B593B005460E4630208DF808008DF8B1
:1026400009500DF10A02022102A8FFF74EFE12A85E
:1026500002AB042202A900900C20FFF77BFE074684
:102660006FB99DF84800902809D1002404E002A821
:10267000005D3055601CC4B2102CF8DB00E002276E
:10268000384613B0F0BDF0B593B006460F46A02013
:102690008DF808008DF809600DF10A02022102A8E8
:1026A000FFF723FE12A802AB042202A900900C201F
:1026B000FFF750FE05464DB99DF84800042805D1A6
:1026C0009DF8080000F00F000A2800D0022515BB75
:1026D000002404E0385D02A90855601CC4B2102C27
:1026E000F8DB06AA102102A8FFF7FFFD12A802AB33
:1026F000122202A900900C20FFF72CFE05464DB9CE
:102700009DF84800042805D19DF8080000F00F004E
:102710000A2800D00225284613B0F0BD10B592B0AB
:1027200050208DF8040000208DF805000DF1060200
:10273000022101A8FFF7D9FD11A801AB042201A9CC
:1027400000900C20FFF706FE0446204612B010BD94
:10275000002103E000BF00BF00BF491C8142F9D344
:10276000704770B5044600264FF48050FE4908605B
:102770007E2000EA440040F080052846FDF7C9FFAE
:102780000020FDF7C6FF06464FF48050F649091FAA
:102790000860304670BD70B504460D464FF4805059
:1027A000F14908607E2000EA44063046FDF7B1FF9B
:1027B0002846FDF7AEFF4FF48050EB49091F086033
:1027C00070BD70B505460C4600262846FFF7C9FFC8
:1027D000064646EA04012846FFF7DDFF70BD70B5E6
:1027E00005460C4600262846FFF7BBFF064626EAAC
:1027F00004012846FFF7CFFF70BD10B51420FFF786
:10280000B0FF044614F0030F03D103211420FFF797
:10281000D8FF10BD10B503211420FFF7E0FF10BD55
:1028200010B58020D14908610A20FFF791FF802070
:10283000CE4948610A20FFF78BFF8020CB49086111
:102840000A20FFF785FF0F210120FFF7A4FF0F21CA
:102850000120FFF7A0FF0A20FFF77AFF3D2111209A
:10286000FFF799FF1E212D20FFF795FF00212C2057
:10287000FFF791FF8D212A20FFF78DFF3E212B20AE
:10288000FFF789FF40211520FFF785FF002010BDCD
:1028900010B50446412C26D108210846FFF79FFFBA
:1028A0003D211120FFF777FF86211720FFF773FFE7
:1028B0007F212620FFF76FFF1E212D20FFF76BFFE2
:1028C00000212C20FFF767FF8D212A20FFF763FFEF
:1028D0003E212B20FFF75FFF4FF47A70FFF738FFA0
:1028E000FFF78BFF01E0012010BD0020FCE708B5D9
:1028F0000121102002F050F98020ADF800000320E3
:102900008DF8020010208DF803006946974801F009
:102910008DFEFDF79BFEFFF783FFFFF77BFF022095
:1029200001F061FDFFF769FF4120FFF7B1FF08BD2E
:1029300010B5FFF775FFFFF76DFF022001F053FDA3
:10294000FFF75BFF10BD8A48007820B10A2806D047
:102950000B280CD107E00A208549087007E00B20FE
:102960008349087003E00A208149087000BF00BF56
:1029700070472DE9F0410746884615460421052099
:10298000FFF72DFF00210120FFF705FF80210A201E
:10299000FFF717FF002405E0395D0920FFF7FBFE74
:1029A000601CC4B24445F7DB03210120FFF7F3FEAE
:1029B000FF2400BF0520FFF7D4FE0646601EC4B208
:1029C00014B116F0040FF5D02220FFF7CAFE2870CC
:1029D0002120FFF7C6FE6870BDE8F0812DE9FE4FAB
:1029E0000646884691469A46DDF830B002200290AD
:1029F0000020019000900C2E06D00E2E09D112203E
:102A000001901020009005E0772001903020009088
:102A100000E000BF00BF019840F080010220FFF7F6
:102A2000BAFE80210420FFF7DAFE00210120FFF723
:102A3000B2FE80210A20FFF7C4FE002506E018F848
:102A400005100920FFF7A7FE681C85B24D45F6DB8F
:102A500031460120FFF79FFE0120FFF782FE04466A
:102A60000C2E03D180210D20FFF7ABFE4FF4FA6549
:102A700000BF0420FFF775FE0446681E85B22DB125
:102A800014F0010F02D100980442F2D080210D20F1
:102A9000FFF7A5FE002D36D00620FFF762FE10F0EE
:102AA0001B0F2ED1002002900198204010F0010F42
:102AB00001D0012002900C2E25D10A20FFF751FEF3
:102AC00004460C20FFF74DFE00F007072FB1601EF3
:102AD00007EBC000ABF8000002E0E000ABF800003C
:102AE00004B90124402C00DD4024002506E0092023
:102AF000FFF737FE0AF80500681C85B2A542F6DB31
:102B000001E00220029080210C20FFF75AFE0021F4
:102B10000120FFF740FE0298BDE8FE8F70B592B02D
:102B200005460C4608210846FFF759FE07210D20EF
:102B3000FFF731FE03211420FFF743FE8DF8045008
:102B400011A801AB012201A900900C20FFF746FF5C
:102B500006468EB9BDF8440010280DD19DF804003A
:102B600020709DF8050005E0140C014000100140A4
:102B70001E000020607000E00226304612B070BDDA
:102B8000F0B593B00546002708210846FFF727FE59
:102B900000210D20FFF7FFFD80210E20FFF71FFE13
:102BA00093208DF8080020208DF8090012A802ABB0
:102BB000022202A900900C20FFF710FF064686B9FA
:102BC000002407E002A8005D285502A8005D4740E8
:102BD000601CC4B2042CF5DB02A8005DB84200D032
:102BE000022680210E20FFF7ECFD304613B0F0BD29
:102BF00070B592B0054693208DF8040070208DF8D2
:102C0000050000208DF80A0000240BE0295D01AAD0
:102C1000A01C11549DF80A00295D48408DF80A0057
:102C2000601CC4B2042CF1DB0DF10B02072101A8DA
:102C3000FFF79FFE08210846FFF7D1FD11A801AB61
:102C4000092201A900900C20FFF7C8FE06462EB904
:102C5000BDF84400182801D1002600E002263046C5
:102C600012B070BD2DE9F04192B004460D461646F3
:102C70001F468DF804408DF805503068CDF80600E9
:102C8000B088ADF80A003868039011A801AB0C2297
:102C900001A900900E20FFF7A1FE8046B8F1000FB9
:102CA00005D10820FFF75DFD10F0080F01D14FF0AE
:102CB0000208404612B0BDE8F081F0B593B0054679
:102CC0000E4630208DF808008DF809500DF10A02EB
:102CD000022102A8FFF74DFE12A802AB042202A9AE
:102CE00000900C20FFF77AFE07466FB9BDF8480048
:102CF000902809D1002404E002A8005D3055601C32
:102D0000C4B2102CF8DB00E00227384613B0F0BD47
:102D1000F0B593B006460F46A0208DF808008DF858
:102D200009600DF10A02022102A8FFF722FE12A893
:102D300002AB042202A900900C20FFF74FFE0546CB
:102D40004DB9BDF84800042805D19DF8080000F0F1
:102D50000F000A2800D0022515BB002404E0385DCE
:102D600002A90855601CC4B2102CF8DB06AA102179
:102D700002A8FFF7FEFD12A802AB122202A90090E2
:102D80000C20FFF72BFE05464DB9BDF8480004287E
:102D900005D19DF8080000F00F000A2800D0022598
:102DA000284613B0F0BD10B592B050208DF8040045
:102DB00000208DF805000DF10602022101A8FFF7A1
:102DC000D8FD11A801AB042201A900900C20FFF747
:102DD00005FE0446204612B010BD10B592B0022484
:102DE00008210846FFF7FBFC402101A806F056FF2A
:102DF000E0208DF8040051208DF805000DF1060249
:102E0000022101A8FFF7B5FD11A801AB042201A919
:102E100000900C20FFF7E2FD44B20CB9002400E062
:102E20000224204612B010BD70B592B005460226AD
:102E300008210846FFF7D3FC402101A806F02EFF29
:102E4000FFF781FDE44800788DF8040001208DF83B
:102E5000050000208DF8060084208DF80700002072
:102E60008DF808008DF8090008208DF80A000DF192
:102E70000B02072101A8FFF77CFD11A801AB092275
:102E800001A900900C20FFF7A9FD46B2C6B99DF834
:102E90000E00D24908709DF80F004870084600786F
:102EA000902811D10846407870B9002405E0A01C94
:102EB00001A9085C2855601CC4B2082CF7DB03E0AC
:102EC000FF20C64908704870304612B070BD70B51A
:102ED00092B005460C46022608210846FFF77FFC03
:102EE000402101A806F0DAFEFFF72DFDBA48007870
:102EF0008DF8040001208DF8050000208DF80600F3
:102F000082208DF8070000208DF808008DF8095008
:102F100008208DF80A0020788DF80B0060788DF875
:102F20000C00A0788DF80D00E0788DF80E00207967
:102F30008DF80F0060798DF81000A0798DF81100E0
:102F4000E0798DF812000DF113020F2101A8FFF7AF
:102F500010FD11A801AB112201A900900C20FFF770
:102F60003DFD46B28EB99DF806009C4908709DF85B
:102F70000700487008460078902804D10846407839
:102F800008B9002605E0022603E0FF2093490870F7
:102F90004870304612B070BD30B593B0044602257B
:102FA00008210846FFF71BFC402102A806F076FE28
:102FB000FFF7C9FC884800788DF8080001208DF8DB
:102FC000090000208DF80A00A4208DF80B000020D5
:102FD0008DF80C008DF80D0002208DF80E00207881
:102FE0008DF80F0060788DF810000DF111020921A5
:102FF00002A8FFF7BEFC12A802AB0B2202A90090A8
:103000000C20FFF7EBFC45B2B5B9BDF84800C1177D
:1030100000EB5171C910091F02AA515C6F4A11706F
:10302000BDF84800C11700EB5171C910C91E02AAB2
:10303000515C6A4A517003E0FF206849087048708B
:1030400066480078902805D16448407810B901207E
:1030500013B030BD0020FBE72DE9F04192B00646E9
:103060000C4617464FF0020808210846FFF7B7FB49
:10307000402101A806F012FEFFF765FC56480078D3
:103080008DF8040001208DF8050000208DF8060061
:10309000B0208DF8070000208DF808008DF8096039
:1030A0008DF80A400DF10B02072101A8FFF761FC22
:1030B00011A801AB092201A900900C20FFF78EFC9A
:1030C0004FFA80F8B8F1000F1BD101A9A01C085CD1
:1030D0004249087001A9E01C085C40494870084654
:1030E0000078902811D10846407870B9002505E095
:1030F00001A9A81C085C7855681CC5B2A542F7DB7D
:1031000003E0FF20354908704870404612B0BDE822
:10311000F0812DE9F04192B006460C4617464FF07B
:10312000020808210846FFF75AFB402101A806F0D3
:10313000B5FDFFF708FC284800788DF80400012051
:103140008DF8050000208DF80600D6208DF80700C8
:1031500000208DF808008DF809608DF80A400025E0
:1031600005E0795DE81D01AA1154681CC5B2A542AD
:10317000F7DBE01D01ABC218C1B201A8FFF7F9FBF4
:1031800011A8009004F10900C2B201AB01A90C2002
:10319000FFF724FC4FFA80F8B8F1000F13D19DF827
:1031A00006000E4908709DF8070048700846007830
:1031B000902805D10846407810B94FF0000806E085
:1031C0004FF0020803E0FF200449087048704046B1
:1031D00012B0BDE8F08100001E0000201F0000209A
:1031E0001FB50121084601F0E4FC6420ADF8080099
:1031F00041F61F40ADF804000020ADF80A00ADF81C
:10320000060001A94FF0804003F0ECFA01221146BC
:10321000900703F05EFE1C208DF8000001208DF861
:10322000010003208DF8020001208DF8030068469C
:1032300001F033F90121880703F030FE1FBD10B5FE
:10324000002406F0E5FA04460121880704F0EFF8AF
:1032500050B10121880704F0FBF800F0D1FA2A48A8
:103260000068401C28490860204606F0D5FA10BDC9
:103270001FB50121022001F09CFC6420ADF808007C
:1032800041F61F40ADF804000020ADF80A00ADF88B
:10329000060001A91D4803F0A5FA012211461B48AA
:1032A00003F017FE1D208DF8000000208DF80100AE
:1032B00003208DF8020001208DF80300684601F01C
:1032C000ECF80121114803F0E9FD1FBD10B5002401
:1032D00006F09EFA044601210C4804F0A8F840B11B
:1032E00001210A4804F0B4F809480068401C084964
:1032F0000860204606F090FA10BD05480068704747
:1033000000200349086070472400002000040040AA
:1033100028000020014606E042F6E06001E0421E7F
:1033200090B20028FBDC0A00A1F1010399B2F3D1AD
:10333000704710B5FDF718FAFDF761FAFDF78AFA44
:10334000FDF770FBFDF7A8FEFEF7D4F9FEF7CCFD04
:10335000FEF795FC00F034F9FEF79BFFFFF7C7FA84
:103360000F2000F066FFFFF73BFFFFF781FF10BD66
:1033700010B500F0A9FC10BD10B5FFF7DAFFFFF79C
:10338000F7FF10BD1CB500246420FDF751FA0020A2
:10339000FDF7A7FB62A200210120FEF791FA64A2CB
:1033A00000210220FEF78CFA65A200210320FEF71F
:1033B00087FA66A200210420FEF782FA58A20021B3
:1033C0000120FEF787FE5AA200210220FEF782FEAE
:1033D0005BA200210320FEF77DFE5EA200210420F7
:1033E000FEF778FE0CB100F03EF9012C0AD1002066
:1033F000322110230D22CDE90010052140F2DF70AB
:10340000FEF7CAFB26E000F0AAF95648C079009002
:1034100054488379828854A1564806F0ABFA514843
:10342000807800904F484378027853A1554806F0C1
:10343000A1FA504A00210320FEF742FA514A002126
:103440000420FEF73DFA4FF4967300221146104611
:1034500006F034F9D7E708B500BF002005F067FB98
:103460004949086014E06A4600214748006805F0B1
:10347000E4FB4648008846490880084602884349DC
:10348000091D444806F0A3FB4149424800F00CFDE9
:10349000E9E708B500BF002005F049FB3E49086098
:1034A000012000F0FFF900F011FA14E06A46002153
:1034B0003948006805F0C1FB384800883849088061
:1034C000084602883549091D364806F080FB344914
:1034D000344800F0B3FAE9E770B50446002500BFB0
:1034E000FFF74AFF04F01EFA06F092F9054603239F
:1034F0002D4A00212D4805F064FD05232C4A0021AA
:103500002C4805F05EFD04232B4A00212B4805F0D2
:1035100058FD092005F0D9FF284606F07DF970BD59
:10352000BDADCBD5BEA7BAC6D3D0CFDE000000005C
:10353000C9EACDA8BFECB5DDCFEAC7E9B5A5000063
:10354000D1D3D6D0D1CEC6FBCBAE00006C697563AB
:1035500068616F006C69756368616F3AC1F5B3ACFF
:1035600000000000FE1600202534642D2532642D55
:10357000253264006E2700202532643A2532643AF1
:10358000253264005027002030000020F43B00204A
:10359000360000202C2300202C000020A433002023
:1035A00034000020081F0020041D0020933401086F
:1035B000041F002057340108041B00208533010834
:1035C00010B50121402001F0DAFA10BD2DE9F041DB
:1035D00004460D46164602F027FC06E0206807BAAE
:1035E00007480760241D681E85B2002DF6D10448E7
:1035F0000068B04202D00020BDE8F0810120FBE766
:10360000003002402DE9F04104460D4616460027E1
:1036100004EBC4104FF4C04101EBC007B5F5806F57
:1036200009DA4FF4816231463846FDF79BFE07A068
:1036300000F034FB08E04FF4816231463846FDF774
:1036400091FE03A000F02AFBBDE8F0814F4B000083
:103650004E6578740000000010B546214FF480706C
:10366000FDF7CFFD10BD10B51648007848B94FF4EE
:10367000BE6215494FF4A710FDF7D1FD0120114995
:10368000087010BD2DE9F04104460D46164600278E
:103690004FF4801000EB8427B5F5806F08DA2A46D6
:1036A00031463846FDF70FFE08A000F0F7FA07E0B4
:1036B0002A4631463846FDF706FE05A000F0EEFA30
:1036C000BDE8F0813A000020D89E01084F4B000071
:1036D0004E6578740000000010B586B000242CB947
:1036E000FFF78BF80A2000F07EFE0124012C05D1A3
:1036F00005A92620FFF712FA00B90224022C04D1F2
:103700003948FFF73DFA00B90324032C04D13648A9
:10371000FFF76EFA00B90524052C07D1324B334A66
:1037200008216020FFF79EFA00B90624062C0AD172
:1037300001A90820FFF7C1FA20B99DF8040010B9CB
:10374000082400E00024082C07D1FFF72CFBFFF72A
:1037500061F80024012006B010BD0020FBE710B581
:1037600086B0002414B9FFF748F80124012C05D1D4
:1037700005A95220FFF7D2F900B90224022C04D186
:103780001948FFF7FDF900B90324032C04D11648AA
:10379000FFF72EFA00B90424042C03D1FFF71DFB18
:1037A00000B90524052C17D11148FFF7F5FB98B196
:1037B0001048FFF7F1FB01AA04210020FFF74CFCA1
:1037C0000D48FFF7E9FB0D48FFF7E6FB01AA0421CE
:1037D0000020FFF741FC0724072C03D1002401201F
:1037E00006B010BD0020FBE7490000203B00002090
:1037F0004100002043000020450000204700002039
:1038000010B500242DE0394800EB041000780128A1
:1038100025D1364800EB0410806800B3334800EB34
:1038200004108068401E314901EB041188602F4864
:1038300000EB0410806890B92C4800EB041040683D
:103840002A4901EB041188600020284901EB04118A
:103850000870264800EB0410C16820468847601CA9
:10386000C4B2022CCFD310BD10B504462048007856
:10387000401C1F49087001201C4901EB041108700D
:103880001B49087800EBD0714910B0EB410104D01E
:1038900000210120FCF783FF03E001210846FCF72B
:1038A0007EFF10BD114901EB001149680F4A02EB80
:1038B0000012916001210D4A02EB00121170704755
:1038C00000210A4A02EB00121170704710B5012066
:1038D000FFF7E8FF01210220FCF761FF10BD10B5E2
:1038E000044600210220FCF75AFF10BD50000020C2
:1038F0007000002010B5FFF7AFFE57A000F0CEF922
:1039000010BD10B54FF4816255480168891C5548B7
:1039100006F05DF95348D0F80444224640F2011104
:10392000FFF754FE18B950A000F0B8F905E04D4A71
:1039300051881088121DFFF7A5FE10BD4C4848495C
:103940000968D1F802200260C98881805521494860
:10395000FDF7CFFF464801784648801CFDF7C9FFB8
:1039600000BF4548006800F4E06044490843001D7A
:1039700041490860BFF3408F00BF00BFFEE710B5AC
:103980004FF4816236480168891C3D4806F01FF9F2
:103990003B48D0F80444224640F20111FFF716FEDE
:1039A00018B931A000F07AF904E0354A518810883E
:1039B000FFF728FE10BD10B54FF48162284801685A
:1039C000891C304806F003F92E48D0F804442E48EC
:1039D000007850B9FDF741F84FF47A7000F003FD1C
:1039E000FDF7B5FA012028490870224640F201117E
:1039F0002448FFF7EBFD18B91BA000F04FF905E0D4
:103A0000204A51881088121DFDF7FAFA10BD10B532
:103A100000240FE01248006840781C4911F8341067
:103A2000884205D1194901EBC4014868804703E089
:103A3000601CC4B2052CEDD300BF10BD70B50546A7
:103A40000C46074805601248046000680088042896
:103A500001DBFFF7DCFF70BD45726173650000009C
:103A60009C0000208C270020416761696E000000E7
:103A7000A400002002FC00080CED00E00000FA05A4
:103A8000942B00209C2F00201400002074000020A4
:103A9000A000002010B586B004460121082001F0E6
:103AA0007BF800214FF4800001F083F801218804A5
:103AB00001F07FF80121084601F06EF8854801F019
:103AC00059FA4FF48060ADF8140003208DF8160009
:103AD00018208DF8170005A97F4800F0A7FD4FF4C6
:103AE0000060ADF8140048208DF8170005A97A4849
:103AF00000F09CFD27208DF8000002208DF80100C9
:103B00008DF8020001208DF80300684600F0C5FC26
:103B100001940020ADF80800ADF80A00ADF80C00E3
:103B2000ADF810000C20ADF80E0001A9694801F0B5
:103B300064FA012240F22551664801F0F6FA0121AB
:103B4000644801F0E6FA06B010BD10B504466348BB
:103B50004188001D4454001F4088401C80B25F49CA
:103B6000488040F22441884202DB00205B494880C3
:103B70005A484088012802D0022835D108E0574829
:103B800000795A2803D0002054494880088043E037
:103B900052484079B02813D004DCA02807D0A128CF
:103BA0001CD108E0B4280FD0C02817D111E008209C
:103BB0004A49088016E040F20A404849088011E06E
:103BC0000820464908800DE040F20A404349088039
:103BD00008E040F20A404149088003E000203F49E4
:103BE000088000BF00BF17E03C4840883B49098877
:103BF00088420AD13948008838B13948006805F050
:103C0000CAF800203549488005E03448008810B9DA
:103C100000203249488000BF00BF304840882F490B
:103C20000988884206DD2D48008818B100202B49FC
:103C30004880088010BD70B5002505F0E9FD0546F7
:103C400040F22551234801F055FB58B1214801F0BD
:103C5000D1FAC4B240F225511E4801F075FB20464E
:103C6000FFF773FF284605F0D7FD70BD00BF194967
:103C7000098811F0400FFAD01649091D08807047D5
:103C800030B502460B46002405E012F8010BFFF7A1
:103C9000EDFF601CC4B29C42F7DB30BD00B50246AC
:103CA00003E01078FFF7E2FF521C10780028F8D1EB
:103CB00000BD10B5044640F22441201D05F0CCFFA4
:103CC00000206080208010BD10B50448FFF7F1FF90
:103CD00010BD000000480040000C0140A43300204B
:103CE0002C00002010B5044640F22441201D05F0B0
:103CF000B3FF00206080208010BD02468A4201DDB3
:103D0000084670471046FCE72DE9F04F87B007469C
:103D1000884691469A46DDF840B0119D00F028FA99
:103D2000019001984006C00907F00F0140EA0130F8
:103D300008F0030140EA014009F00F0140EA0120C8
:103D40000AF03F0140EA810444F001042BE0082D11
:103D500002DC44F0020401E024F0020408212846B9
:103D6000FFF7CBFF0646039404208DF810000020D7
:103D70008DF811008DF81260324659460DF113008E
:103D800005F025FF02A800F0B8FA14F0010F01D0E9
:103D900024F00104C4F3400000B105E0A5F10800DF
:103DA000C5B20BF1080BD2E700BF07B0BDE8F08F3A
:103DB00010B504466068C0F38A40C4490880606852
:103DC000C0F301408870A088C0F30330C870A08899
:103DD000C0F3012008712079C0F385004871207973
:103DE000C0F340008871207900F00100C87100F034
:103DF000BFF9B6490988884206D0B4480088A0F5C2
:103E0000E061FF3900D010BDB048C079C0B1B04802
:103E10000078A8B9AF48FFF765FFA27AAD494B8893
:103E2000091D581804F10B0105F0D1FEA94840887E
:103E3000A17A0844A74948800120A54908701BE0E1
:103E4000A448408840F22441884206DDA148FFF79B
:103E500049FF00209E4908700EE0A27A9D494B88D8
:103E6000091D581804F10B0105F0B1FE994840886E
:103E7000A17A0844974948809448807990B1944841
:103E8000007801280BD193484088924908809248D5
:103E9000006804F080FF00208D49087002E08D4822
:103EA000FFF720FF00BFAEE77CB505460C468B4808
:103EB00005608648C07809287AD2DFE800F07905E5
:103EC0001F2A354154606C002088072815D183488B
:103ED00000688079814909684979804ECDE90010F0
:103EE000366833797D4E3668F2787C4E3668B17824
:103EF0007A4E36683088FDF74FFE5AE020880A284F
:103F000006D10A22754801684FF48050FDF787F901
:103F10004FE02088042806D10422704801684FF43D
:103F20004050FDF77CF944E02088012807D167481C
:103F300000790F2803D1654800796449087138E099
:103F4000208808280ED1614800790E280AD15F48E0
:103F50004079042806D06248604909680A6802600E
:103F60004968416025E02088012807D15748007939
:103F70000E2803D1554800795449087119E020886A
:103F8000012807D1514800790E2803D14F48007904
:103F90004E4908710DE02088012807D14B4800796F
:103FA0000E2803D1494800794849087101E0FFE72C
:103FB00000BF00BF7CBD7CB504460D4616460120FF
:103FC0002B4622460021CDE90060FFF79DFE7CBD17
:103FD0007CB504460D46164601202B46224600219C
:103FE000CDE900600220FFF78FFE7CBD7CB5044662
:103FF0000E4615460E2C09D1012033460E22002113
:10400000CDE900500320FFF77FFE0AE00F2C08D116
:10401000052033460F220021CDE900500320FFF791
:1040200073FE7CBD7CB506460C4615460120234632
:104030000F220021CDE900500420FFF765FE7CBD72
:104040007CB506460C4615460D2023460E2201215E
:10405000CDE900500520FFF757FE7CBD7CB5064634
:104060000C4615460D2023460E220221CDE90050B4
:104070000520FFF749FE7CBD7CB506460C4615467B
:10408000122023460E220021CDE900500620FFF722
:104090003BFE7CBD7CB506460C46154620202346DB
:1040A0000E220021CDE900500720FFF72DFE7CBD38
:1040B0007CB506460C461546052023460E220021F7
:1040C000CDE900500820FFF71FFE7CBDAE000020A8
:1040D000AC000020F43B002030000020B80000209D
:1040E000BC00002008B50121052000F055FD01218C
:1040F000480600F05EFD4FF40060ADF80000482077
:104100008DF8030003208DF802006946864800F010
:104110008DFA4FF48050ADF8000018208DF80300A0
:1041200003208DF8020069467F4800F07FFA08BD41
:1041300008B50121602000F02FFD0C20ADF8000033
:1041400048208DF8030001208DF802006946774869
:1041500000F06CFA7C20ADF8000048208DF80300D8
:1041600001208DF802006946714800F05FFA08BD31
:1041700070B540216E4800F0EAFA850120216C48B4
:1041800000F0E5FA05EB40151021694800F0DFFA70
:1041900005EB00150821664800F0D9FA05EBC005CB
:1041A0000421634800F0D3FA05EB800508215F483D
:1041B00000F0CDFA05EB400504215C4800F0C7FA99
:1041C0002844C4B2204670BD08B514208DF8000004
:1041D00000208DF8010001208DF802008DF8030009
:1041E000684600F05AF908BD7FB504460D468DF8C3
:1041F0000A4000208DF80B0001208DF80C004FF6CE
:10420000FF7000EA4510ADF800000420ADF8020090
:104210004FF6E070ADF804000420ADF80600002071
:10422000ADF8080001208DF80D00684601F0ABF9EB
:104230007FBD3EB50446FFF7C7FFFFF753FFFFF70B
:1042400077FF684601F020FA00208DF806008DF80F
:1042500007008DF808008DF809008DF80A0001208C
:104260008DF80B0000208DF8020004EB440031496A
:1042700011F810008DF8030004EB440001EB40003E
:1042800040788DF8040004EB440001EB4000807896
:104290008DF8050004EB440001EB40008088ADF888
:1042A00000006946244801F0E4F840F2FF71002064
:1042B000FFF79AFFFFF75CFF00F07F05294601201A
:1042C000FFF792FF012202211B4801F05AFC3EBD7C
:1042D00010B5002405F09CFA0446184A002116483F
:1042E00001F034FB1548FFF763FD0221124801F08D
:1042F00048FD204605F090FA10BD70B50446002533
:1043000021460D4801F02EFA064605E06D1C0C48CA
:10431000854201D9012070BD3146074801F0BAFA43
:104320000128F3D10020F6E7000801400014014005
:1043300000180140C4000020006400401C40002020
:104340008096980010B503F0C6F903F00AFB03F05D
:10435000DDF910BD10B56FF0040000F0E9F8314848
:1043600000683149B0FBF1F0304908702D48006811
:104370002D49B0FBF1F441F28830444305202C492B
:1043800008804FF0E020006940F002004FF0E0218B
:10439000086108464461006940F00100086110BDF1
:1043A00070B5034600224FF0E02675691F4E36783F
:1043B00003FB06F400BF4FF0E026B16910E04FF0B8
:1043C000E026B06988420BD0884202D20E1A3244ED
:1043D00002E02E1A0E4432440146A24200D300E00D
:1043E000EDE700BF70BD70B50446124800780128A3
:1043F00011D10F480088844206DB0D48008894FBE9
:10440000F0F5284605F028F90948008894FBF0F1FA
:1044100000FB114084B24FF47A7104FB01F0FFF706
:10442000BFFF70BD0000002000127A003C01002098
:104430003E0100207A01002010B54FF4A06000F08A
:1044400027F84FF48031C80200F05AF810BD000080
:104450000948804709480047FEE7FEE7FEE7FEE718
:10446000FEE7FEE7FEE7FEE7FEE7FEE70448054954
:10447000054A064B70470000350301083101010869
:10448000104B002010510020104D0020104D002036
:1044900031490143314A1160704770B50021002352
:1044A0000F22C4780CB32D4C246804F4E064C4F5E6
:1044B000E064210AC1F10403CA40447804FA03F11C
:1044C0008478144021430901254C0678A1550478CD
:1044D00004F01F050124AC4005786D114FF0E02673
:1044E00006EB8505C5F8004109E0047804F01F05D6
:1044F0000124AC401B4D0678761145F8264070BD6E
:10450000194A0A400243154B1B1F1A60704739B104
:10451000124A121D12680243104B1B1D1A6006E05E
:104520000E4A121D126882430C4B1B1D1A60704705
:10453000042808D14FF0E021096941F004014FF04F
:10454000E022116107E04FF0E021096921F0040148
:104550004FF0E022116170470000FA050CED00E019
:1045600000E400E080E100E080FFFF1F10B504469A
:10457000CA48844208D10121042000F027FB002111
:10458000042000F023FB46E0C548844208D1012105
:10459000082000F01BFB0021082000F017FB3AE088
:1045A000C048844208D10121102000F00FFB0021F7
:1045B000102000F00BFB2EE0BB48844208D1012103
:1045C000202000F003FB0021202000F0FFFA22E071
:1045D000B648844208D10121402000F0F7FA0021BA
:1045E000402000F0F3FA16E0B148844208D10121DE
:1045F000802000F0EBFA0021802000F0E7FA0AE0CA
:10460000AC48844207D10121801500F0DFFA002177
:10461000A01500F0DBFA10BD10B50121084600F02E
:10462000D5FA0021012000F0D1FA10BD2DE9F041AA
:10463000024600250026002000230024002791F8D0
:1046400003C00CF00F0591F803C01CF0100F03D04D
:1046500091F802C04CEA050591F800C0BCF1000FCA
:1046600031D0146800202BE04FF0010C0CFA00F35D
:10467000B1F800C00CEA03069E4220D183004FF03F
:104680000F0C0CFA03F7BC4305FA03FC4CEA0404D4
:1046900091F803C0BCF1280F06D14FF0010C0CFAC1
:1046A00000FCC2F814C00AE091F803C0BCF1480F46
:1046B00005D14FF0010C0CFA00FCC2F810C0401CF0
:1046C0000828D1D31460B1F800C0BCF1FF0F34DD6D
:1046D000546800202EE000F1080C4FF0010808FAA1
:1046E0000CF3B1F800C00CEA03069E4221D183000E
:1046F0004FF00F0C0CFA03F7BC4305FA03FC4CEA2D
:10470000040491F803C0BCF1280F05D100F1080C96
:1047100008FA0CF8C2F8148091F803C0BCF1480FF5
:1047200007D100F1080C4FF0010808FA0CF8C2F8A4
:104730001080401C0828CED35460BDE8F0814FF6AD
:10474000FF710180022181700421C170704702460F
:10475000002093680B4201D0012000E00020704748
:104760000146886880B2704702460020D3680B4239
:1047700001D0012000E0002070470146C86880B2E7
:10478000704701617047416170470AB1016100E003
:1047900041617047C16070474FF480320A438261C3
:1047A0008161826182698269704702460020424BC2
:1047B00018684FF68073184040EA021008433E4BD9
:1047C000186070473D49C8617047F0B50A4600233C
:1047D00000240021002500F00046B6F1004F02D170
:1047E000354EF16901E0344E7168C0F3034583B280
:1047F00000F44016B6F5401F08D121F070612E4E2E
:10480000766826F070662C4F7E6012E000F4801609
:10481000B6F5801F06D1032606FA05F4A14341F040
:10482000706106E0460D360103FA06F6B14341F029
:10483000706122B1460D360103FA06F6314300F0ED
:104840000046B6F1004F02D11B4EF16101E01A4E55
:104850007160F0BD30B500228B071C0F0F2303FAE7
:1048600004F2154B08338C1053F824309343124C48
:1048700008348D1044F8253023468C1053F824302A
:104880008C07240F00FA04F423430B4C08348D10DA
:1048900044F8253030BD0A490860704700080140DF
:1048A000000C0140001001400014014000180140BC
:1048B000001C014000200140000001400000204297
:1048C000DC002042DD48006840F00100DB49086060
:1048D00008464068DA490840D849486008460068F8
:1048E000D8490840D54908600846006820F480206F
:1048F00008600846406820F4FE0048604FF41F003E
:1049000088607047CD49096821F48031CB4A116035
:104910001146096821F480211160B0F5803F03D071
:10492000B0F5802F0ED106E0C449096841F480310A
:10493000C24A116007E0C149096841F4A021BF4A99
:10494000116000E000BF00BF704710B501460022B3
:10495000002300204A11012A02D1B84C236806E046
:10496000022A02D1B54C236A01E0B44C636A01F01B
:104970001F02012494401C4201D0012000E00020CD
:1049800010BD38B5002000900024002500BF312064
:10499000FFF7DBFF05460098401C00900098B0F53B
:1049A000A06F01D0002DF2D03120FFF7CEFF08B16B
:1049B000012400E00024204638BD014600209F4A23
:1049C000106820F0F80040EAC100106070479E496E
:1049D0000860704702460020984B586820F47C100D
:1049E00042EA01031843954B5860704796490866A0
:1049F000704701460020914A506820F003000843A8
:104A0000506070478D48406800F00C0070470146C8
:104A100000208A4A506820F0F00008435060704738
:104A200001460020854A506820F4E0600843506049
:104A3000704701460020814A506820F4605040EAE7
:104A4000C1005060704729B17C4A527A02437B4BC7
:104A50005A7204E0794A527A8243784B5A7270470C
:104A60007A490860704701460020744A506820F473
:104A700040400843506070470021754A11706F4AEA
:104A800082F82010012802D0042808D103E0012177
:104A90006F4A117004E005216D4A117000E000BFFB
:104AA00000BF70476B49086070476449096A014359
:104AB000624A11627047674944390860704730B5EF
:104AC00000210022002400235C4D6D6805F00C01DC
:104AD00021B1042905D0082923D105E05E4D0560E8
:104AE00022E05D4D05601FE0544D6D6805F47012C5
:104AF000524D6D6805F48034022505EB92421CB9D5
:104B0000564D554305600BE04C4D6D6815F4003F64
:104B100003D0524D5543056002E04F4D55430560AB
:104B200002E04D4D056000BF00BF444D6D6805F0CB
:104B3000F00109094A4D6B5C0568DD4045603F4D59
:104B40006D6805F4E061090A454D6B5C4568DD4020
:104B500085603A4D6D6805F46051C90A404D6B5C43
:104B60004568DD40C560354D6D6805F44041890BF1
:104B70003C4D6B5CC568B5FBF3F5056130BD29B1F3
:104B80002E4A526902432D4B5A6104E02B4A526966
:104B900082432A4B5A61704729B1284A92690243DD
:104BA000264B9A6104E0254A92698243234B9A611D
:104BB000704729B1214AD2690243204BDA6104E0EF
:104BC0001E4AD26982431D4BDA61704729B11B4AE4
:104BD000D2680243194BDA6004E0184AD268824373
:104BE000164BDA60704729B1144A12690243134B1D
:104BF0001A6104E0114A12698243104B1A6170472E
:104C000014494039086070470F49C86470470B4920
:104C1000C87170470948406A40F08070074948628F
:104C2000704701460020054A92680A4201D00120DF
:104C300000E0002070470149887270470010024070
:104C40000000FFF8FFFFF6FE00004242D80042429B
:104C5000201002408004424200127A0000093D0008
:104C6000400100205001002010B50446BE48844297
:104C700008D101218014FFF7A9FF0021A014FFF73C
:104C8000A5FF16E0B948844208D101210014FFF7BE
:104C9000AAFF00212014FFF7A6FF0AE0B4488442CF
:104CA00007D10121C013FFF79EFF0021E013FFF79A
:104CB0009AFF10BD10B50022028802F441520B8801
:104CC0004C8823438C882343CC8823430C8923437B
:104CD0004C8923438C892343CC8923431A43028084
:104CE000838B4FF2FF74234083830B8A038210BDB2
:104CF0002DE9F04F85B005460C464FF0000902271C
:104D00004FF000084FF0010B0026B246A88B4FF27F
:104D100040010840A88302202884B5F81C90A068B0
:104D2000022801D100BF38E0A08810B94FF0010B74
:104D300001E04FF0020B8D48854200D100E000BF3A
:104D40006846FFF7BCFEDDF800A0E088B0F5007F04
:104D50000AD14FEA1A2000EB80004000A168B0FBA6
:104D6000F1F0401D86B20BE04FEA4B10BAFBF0F0B9
:104D700000EB80004000A168B0FBF1F0401D86B25E
:104D80000A20B6FBF0F606F00108A6EB0800C0F317
:104D90004F074FF6FF7000EA0828022F01DBFF2FB4
:104DA00002DD02274FF00008E08840EA080038439F
:104DB0002884A088A1890843618808432188084382
:104DC00040F4006040EA0909A5F81C9005B0BDE870
:104DD000F08F0021018041808180C180018141816B
:104DE0008181C181072101827047002101804180BA
:104DF0008180C1800221816000218181704721B1C1
:104E0000028842F04002028004E002884FF6BF733D
:104E10001A400280704721B1828B42F48062828303
:104E200004E0828B4FF6FF331A408283704730B51F
:104E3000002400230C110125A540ABB21AB18588CE
:104E40001D43858002E085889D43858030BD1AB171
:104E500083880B43838002E083888B438380704781
:104E600081817047014688897047A1F57E42FF3AEB
:104E700004D0028842F48072028004E002884FF677
:104E8000FF631A400280704721B1828842F0040219
:104E9000828004E082884FF6FB731A40828070475C
:104EA00002884FF2FF731A40028002880A43028090
:104EB0007047018841F480510180704721B1028818
:104EC00042F40052028004E002884DF6FF731A405B
:104ED0000280704702460020012901D0108B00E0BB
:104EE000908A70470146088A7047B1F5804F04D117
:104EF000028842F48042028004E002884BF6FF738D
:104F00001A40028070470246002013890B4201D0EC
:104F1000012000E000207047CA4302817047F0B5CD
:104F20000246002000240023002501F00F0701267F
:104F3000BE40B4B20B1101269E40B3B2968806EA79
:104F400003051689264202D00DB1012000E00020A1
:104F5000F0BD10B5002201F00F040123A3409AB266
:104F6000D343038110BD00000030014000380040F1
:104F7000003C004010B50446FB48844209D10121A1
:104F80008803FFF723FE00214FF48040FFF71EFE49
:104F900032E0F648844209D101214804FFF723FE9C
:104FA00000214FF40030FFF71EFE25E0F048844258
:104FB00009D101218804FFF716FE00214FF480205B
:104FC000FFF711FE18E0EB48844209D10121C80423
:104FD000FFF709FE00214FF40020FFF704FE0BE06D
:104FE000E548844208D101210805FFF7FCFD0021B6
:104FF0004FF48010FFF7F7FD10BD2DE9F04786B0A4
:1050000005460E460024A24600BFA1460027B089EF
:1050100000B100BF2F462C8A4CF6FF700440F08888
:1050200004432C82AC894EF6F3100440B0883189D9
:105030000843718908430443AC81AC8A4FF6FF40B2
:105040000440B0890443AC8201A8FFF738FDC6488C
:10505000874202D1DDF810A001E0DDF80CA0A8899C
:1050600010F4004F08D00AEBCA0000EB0A103168B8
:105070004900B0FBF1F807E00AEBCA0000EB0A10A8
:1050800031688900B0FBF1F86420B8FBF0F004014E
:105090002009642101FB1089A88910F4004F08D071
:1050A000322000EBC900B0FBF1F000F00700044330
:1050B00008E0322000EB09106421B0FBF1F000F0B1
:1050C0000F0004432C8106B0BDE8F0874FF4165161
:1050D000016000218180C18001810C21418100217A
:1050E0008181704710B502460020108A4FF2FF03FD
:1050F00018400B884C8823438C882343CC88234357
:105100001843108210BD0021018041808180C18040
:10511000704721B1828942F40052828104E0828981
:105120004DF6FF731A4082817047F0B503460024A4
:10513000002600250020A1F510676A3F00D100BFBE
:105140001846C1F3421401F01F06012707FA06F5BD
:10515000012C01D10C3004E0022C01D1103000E010
:1051600014301AB107682F43076002E00768AF43A5
:105170000760F0BD1AB1838A0B43838202E0838A01
:105180008B4383827047028A4FF6F0731A40028283
:10519000028A0A430282704782894FF2FF731A40E3
:1051A000828182890A438281704721B1828942F0DB
:1051B0000202828104E082894FF6FD731A408281E7
:1051C0007047028A4FF6DF731A400282028A0A434E
:1051D0000282704721B1028A42F48042028204E0D6
:1051E000028A4BF6FF731A4002827047C1F308022D
:1051F0008280704701468888C0F308007047818923
:1052000041F0010181817047028BD2B20283028B8F
:1052100042EA012202837047028B02F47F4202833A
:10522000028B0A430283704721B1828A42F0200236
:10523000828204E0828A4FF6DF731A4082827047CE
:1052400021B1828A42F01002828204E0828A4FF603
:10525000EF731A408282704721B1828A42F00802BD
:10526000828204E0828A4FF6F7731A408282704786
:1052700021B1828942F40042828103E08289C2F333
:105280000E028281704721B1828A42F400628282DA
:1052900004E0828A4FF2FF731A4082827047828A4A
:1052A0004FF6FB731A408282828A0A4382827047D9
:1052B00021B1828A42F00202828204E0828A4FF6A1
:1052C000FD731A408282704702460020B1F5007FCC
:1052D00000D100BF13880B4201D0012000E0002064
:1052E000704701F40072B2F5007F00D100BFCA43DD
:1052F0000280704770B5024600240023002500207C
:10530000A1F510666A3E00D100BFC1F3421501F05D
:105310001F03012606FA03F3012D02D196893340BB
:1053200006E0022D02D1168A334001E0968A33400E
:105330000C12012606FA04F41688344013B10CB19D
:10534000012000E0002070BD10B500220023A1F56F
:1053500010646A3C00D100BF0A1201249440A3B239
:10536000DC43048010BD00000038014000440040D0
:1053700000480040004C00400050004010B50120A3
:10538000FFF73EFC0020FFF73BFC10BD2A490860F8
:1053900070472949091F0860704727498431086010
:1053A000704701460020254A10884FF67F42104082
:1053B0000843224A10807047014600201F4A108887
:1053C0004FF68072104008431C4A1080704708B5A1
:1053D00000220092194A2C3A0092009A024400924C
:1053E000009A116008BD08B50146002000901348DE
:1053F0002C3800900098084400900098008808BD60
:105400000D489C300068C0B270470C4808300088D6
:1054100040F0010009490831088070470648A03073
:105420000068C0B2704705480830008840F00200AC
:10543000024908310880704704860D422C6C0040F8
:1054400010B50446FE48844209D101214806FFF701
:10545000CAFB00214FF00070FFF7C5FB08E00121F7
:105460008806FFF7C0FB00214FF08060FFF7BBFB11
:1054700010BD30B5024600200023146824F0020459
:105480001460146844F00104146000E05B1C54686C
:1054900014F0010F03D1A3F57F44FF3CF6D154680B
:1054A00014F0010F01D100206CE08C79012C04D1A3
:1054B000146844F08004146003E0146824F080044D
:1054C0001460CC79012C04D1146844F040041460B9
:1054D00003E0146824F0400414600C7A012C04D119
:1054E000146844F02004146003E0146824F02004DD
:1054F00014604C7A012C04D1146844F01004146038
:1055000003E0146824F0100414608C7A012C04D198
:10551000146844F00804146003E0146824F00804DC
:105520001460CC7A012C04D1146844F00404146093
:1055300003E0146824F0040414608C78A407CD7888
:1055400044EA05640D7944EA05444D7944EA05547A
:105550000D886D1E2C43D461146824F0010414607E
:10556000002300E05B1C546814F0010F03D0A3F586
:105570007F44FF3CF6D1546814F0010F01D00020A5
:1055800000E0012030BD10B50021837A012202FA2B
:1055900003F1AC4A126842F00102AA4B1A60A94A10
:1055A0001C3212688A43A74B1C331A60027BCAB9AB
:1055B000A44A0C3212688A43A24B0C331A60428808
:1055C000C38842EA03439F4A4032847A42F8343027
:1055D0000288838842EA03439A4A4032847A02EB83
:1055E000C4025360027B012A19D1964A0C32126818
:1055F0000A43944B0C331A604288038842EA0343FF
:10560000904A4032847A42F83430C288838842EA31
:1056100003438C4A4032847A02EBC4025360C27A5C
:105620003AB9884A121D12688A43864B1B1D1A60BC
:1056300006E0844A121D12680A43824B1B1D1A6041
:10564000028932B97F4A143212688A437D4B14337F
:105650001A600289012A06D17A4A143212680A4372
:10566000784B14331A60427B012A06D1754A1C32EA
:1056700012680A43734B1C331A60724A126822F094
:105680000102704B1A6010BD00218171C17101725D
:1056900041728172C1728170C17003210171022156
:1056A00041710121018070476649096841F001019B
:1056B000644A11601146096843F60E729143614ACB
:1056C00011601146096841EA00211160114609681C
:1056D00021F001011160704721B1026842F480326B
:1056E000026003E0026822F4803202607047E1B198
:1056F000026842F0800202604FF4C272125842F413
:1057000080734FF4C27213504FF4CA72125842F4AD
:1057100080734FF4CA7213504FF4D272125842F48D
:1057200080734FF4D27213501BE0026822F08002A3
:1057300002604FF4C272125822F480734FF4C272A6
:1057400013504FF4CA72125822F480734FF4CA7285
:1057500013504FF4D272125822F480734FF4D27265
:105760001350704710B502460020936803F0806321
:10577000B3F1806F00D110E0936803F00063B3F1E0
:10578000006F01D1012008E0936803F08053B3F16A
:10579000805F01D1022000E00420042879D002F5C6
:1057A000C07303EB00131B6803F0010402F5C07320
:1057B00003EB00131C600B7A7BB94B7A0C8843EA2D
:1057C000445302F5C07404EB00142468234302F52B
:1057D000C07404EB0014236010E00B7A4C6843EAB9
:1057E000C4034C7A234302F5C07404EB001424680C
:1057F000234302F5C07404EB001423608B7A03F09A
:105800000F038B7202F5C07303EB00135B6823F088
:105810000F0402F5C07303EB00135C6002F5C07364
:1058200003EB00135B688C7A234302F5C07404EB2E
:10583000001463608B7B1C064B7B44EA034403E04B
:1058400000640040006600400B7B44EA0323CC7AEE
:10585000234302F5C07404EB0014A3608B7C1C0688
:105860004B7C44EA03440B7C44EA0323CC7B234374
:1058700002F5C07404EB0014E36002F5C07303EB9F
:1058800000131B6843F0010402F5C07303EB00131F
:105890001C6010BD10B50246002021B1012907D0BF
:1058A00002290FD109E09368F74C03EA04000BE0EA
:1058B0009368F64C03EA040006E09368F44C03EAAC
:1058C000040001E0002000BF00BFF24C031BA04217
:1058D00016D007DC80B16FF08063C3180ED0022BA6
:1058E00018D111E0B3F5007F10D0EB4C1B1909D093
:1058F000B3F5003F0ED10BE002200DE000200BE0DD
:10590000002009E0002007E0012005E0012003E07D
:10591000012001E0002000BF00BF10BD21B101291E
:1059200007D002290FD109E0826842F0800282602C
:105930000AE0826842F40042826005E0826842F434
:105940000002826000E000BF00BF704710B500F5A4
:10595000D87303EB01131B6803F004031372137A6B
:1059600053B900F5D87303EB01131B6840F2FF74C1
:1059700004EA5353136009E000F5D87303EB0113F5
:105980001B686FF0604404EAD303536000F5D873DA
:1059900003EB01131B6803F00203537200F5D87385
:1059A00003EB01135B6803F00F03937200F5D873E8
:1059B00003EB01135B681B0AD37400F5D87303EB88
:1059C00001139B68D37200F5D87303EB01139B6836
:1059D0001C0A147300F5D87303EB01139B681C0CAD
:1059E000547300F5D87303EB01139B681B0E93737C
:1059F00000F5D87303EB0113DB68D37300F5D8739C
:105A000003EB0113DB681C0A147400F5D87303EB75
:105A10000113DB681C0C547400F5D87303EB0113FD
:105A2000DB681B0E937421B9C36843F02003C36085
:105A300003E0036943F02003036110BD21B9C2688C
:105A400042F02002C26003E0026942F020020261DB
:105A500070470246002019B9D36803F0030006E03E
:105A6000012903D1136903F0030000E0002070470F
:105A700010B502460B4600204FF6FF71BBB9146803
:105A800024F0020444F00104146000E0491E54684C
:105A900004F00304012C01D00029F7D1546804F06C
:105AA0000304012C01D0002032E0012030E0012B62
:105AB00013D1146824F00304146000E0491E5468F4
:105AC00014F0030F01D00029F8D1546814F0030F2B
:105AD00001D000201CE001201AE0022B17D114682D
