:020000040800F2
:1000000070410020CD1A0008F9030008FB03000826
:1000100005040008090400080D04000800000000A1
:1000200000000000000000000000000011040008B3
:10003000130400080000000015040008170400085D
:10004000E71A0008E71A0008E71A0008E71A00088C
:10005000E71A0008E71A0008E71A0008E71A00087C
:10006000E71A0008E71A0008E71A0008E71A00086C
:10007000E71A0008E71A0008E71A0008E71A00085C
:10008000E71A0008E71A0008E71A0008E71A00084C
:10009000E71A0008E71A0008E71A0008E71A00083C
:1000A000E71A0008E71A0008E71A0008E71A00082C
:1000B000E71A0008E71A0008E71A0008E71A00081C
:1000C000E71A0008E71A0008E71A0008E71A00080C
:1000D000E71A0008852E0008E71A00084D190008E5
:1000E000E71A0008E71A0008E71A0008E71A0008EC
:1000F000E71A0008E71A0008E71A0008E71A0008DC
:10010000E71A0008E71A0008E71A0008E71A0008CB
:10011000E71A0008E71A0008E71A0008E71A0008BB
:10012000E71A0008E71A0008E71A0008E71A0008AB
:1001300000F002F800F04FF80AA090E8000C8244AA
:100140008344AAF10107DA4501D100F044F8AFF287
:10015000090EBAE80F0013F0010F18BFFB1A43F0A5
:1001600001031847D43D0000F43D00000A4410F894
:10017000014B14F00F0508BF10F8015B240908BFFC
:1001800010F8014B6D1E05D010F8013B6D1E01F8F3
:10019000013BF9D1641E03D0641E01F8015BFBD161
:1001A0009142E4D37047000000230024002500267C
:1001B000103A28BF78C1FBD8520728BF30C148BFCA
:1001C0000B607047642903F02F84002070471FB52F
:1001D0001FBD10B510BD03F027FE1146FFF7F7FF56
:1001E00000F018F803F045FE03B4FFF7F2FF03BC7C
:1001F00002F0EEFDEFF30980704780F30988704745
:10020000EFF30880704780F30888704740BA704762
:10021000C0BA704702F06CFD00F050FE4FF4E130C0
:1002200001F0CEFA01F0D4FB01F0C2F900F05DFE5E
:1002300001F0C2F85B4A0021084601F07DF95A48F6
:1002400002F066FE594908705748801C02F060FEB3
:100250005749087055480078552803D0534800780E
:10026000FF285CD15AE05348007888B15248008892
:1002700052490880084602884F49091D504803F03A
:1002800096FC4E494E4801F0FCFB0020494908709D
:100290004C48007801280ED100204A4908705521A9
:1002A000414802F038FE484801783F48801C02F07F
:1002B00032FE00F069F845480078012804D100209A
:1002C0004249087001F0E5F94148007801280AD157
:1002D00000203F490870002240F225513D4802F0BD
:1002E000BAFB00F051F83C480078012809D101F030
:1002F0009AFC3A4801F0DCFC01F0A1FC00203649F0
:10030000087037480078012808D1AA21264802F051
:1003100002FE00203249087000F036F8A3E72F48AB
:10032000006830490840B0F1005F0FD12B484068A9
:100330002D490860084600682C490860274908686C
:10034000FFF761FF29480068804703E05521164800
:1003500002F0E1FD17E00A2002F006FD15480078E2
:1003600088B1154800881549088008460288124956
:10037000091D134803F01BFC1049114801F081FBD3
:1003800000200C490870E6E71948006800F4E060B6
:1003900018490843001D16490860BFF3408F00BF8D
:1003A000FEE700000100002002FC0008120000200F
:1003B000160000204C100020F0280020140000201F
:1003C000C41000200D000020801000200E0000202E
:1003D0000F0000200048004010000020000001082D
:1003E000110000200000FE2F3C00002038000020FB
:1003F0000CED00E00000FA05704707A000F0BCF922
:1004000000BFFEE700BFFEE700BFFEE700BFFEE75C
:1004100070477047704770474552524F5221212113
:100420002121200A0D0000000CB500200190009051
:100430006B48006840F480306949086000BF684834
:10044000006800F4003000900198401C0190009872
:1004500018B90198B0F5A06FF1D16148006810F4A7
:10046000003F02D00120009001E0002000900098A1
:10047000012842D15B48006840F0100059490860EB
:100480000846006820F0030008600846006840F055
:100490000200086052484068514948600846406878
:1004A00048600846406840F48060486008464068FC
:1004B00020F47C1048600846406840F4E81048602A
:1004C0000846006840F08070086000BF444800683B
:1004D00010F0007FFAD04248406820F00300404905
:1004E00048600846406840F00200486000BF3C4851
:1004F000406800F00C000828F9D10CBD10B5FFF7DA
:1005000093FF10BD10B53648006840F00100344933
:100510000860084640683449084031494860084648
:100520000068324908402E4908600846006820F4F7
:10053000802008600846406820F4FE0048604FF4C0
:100540001F008860FFF7DAFF4FF00060284908605D
:1005500010BD10B5002100200022214B5B6803F084
:100560000C0121B1042906D0082928D107E0214B2C
:10057000214C236027E01F4B1F4C236023E0184BC6
:100580005B6803F47010164B5B6803F4803202233F
:1005900003EB904022B9194B4343174C23600DE005
:1005A0000F4B5B6813F4003F04D0144B4343124CD1
:1005B000236003E00F4B43430F4C236003E00D4BDC
:1005C0000D4C236000BF00BF054B5B68C3F30313F2
:1005D0000B4CE15C084B1B68CB40074C236010BD03
:1005E00000100240002002400000FFF8FFFFF6FE6E
:1005F00008ED00E000127A001800002000093D001C
:100600001C000020F0B5EE4A00250024002320E065
:10061000B1FBF2F6303606F0FF0C2E466D1C00F8EA
:1006200006C0B1FBF2F602FB16110A26B2FBF6F287
:100630006E1E865D302E01D1012600E000260CB929
:10064000012700E000273E4201D0002500E0641CA5
:100650005B1C0A2BDCD3F0BD70B502460C460021B2
:10066000002500231078302843D15078782802D014
:10067000507858283DD1907808B9002070BD0221EB
:1006800030E0505C10B9236001252DE0505C41281A
:1006900002DB505C46280BDD505C612802DB505CBD
:1006A000662805DD505C302819DB505C392816DCE3
:1006B000505C302805DB505C392802DC505C303857
:1006C0000AE0505C412805DB505C462802DC505CA7
:1006D000373801E0505C573800EB031301E0002588
:1006E00002E0491C0B29CCD300BF0B2934D30025D1
:1006F00032E000212AE0505C10B92360012527E098
:10070000505C6B2802D0505C4B2804D119B19B027D
:10071000236001251CE0505C6D2802D0505C4D2800
:1007200004D119B11B052360012511E0505C30286C
:1007300009DB505C392806DC505C303803EB83065B
:1007400000EB460301E0002502E0491C0B29D2D34F
:1007500000BF0B2900D3002528468FE710B50446BB
:100760002146984802F0D8F900BF8021954802F050
:1007700041FA0028F9D010BD10B5044603E02078F6
:10078000FFF7ECFF641C20780028F8D110BD10B5ED
:10079000044620218B4802F02DFA28B18948001D1B
:1007A00000882070012010BD0020FCE708B5002063
:1007B000009004E06846FFF7EAFF00B100E0F9E7C7
:1007C00000BF9DF8000008BD70B506460025002456
:1007D00000BFFFF7EBFF04460D2C00D11AE0082CF8
:1007E00005D11DB178A0FFF7C7FF6D1E11E0802D68
:1007F00004D376A0FFF7C0FF00250AE0202C07DB1A
:100800007E2C05DC28466D1C34542046FFF7A6FFDD
:1008100000BFDEE700BF75A0FFF7AEFF00207055F8
:1008200070BD1FB5044623E06846FFF7CDFF9DF875
:10083000000000B91CE09DF80000612803D09DF87D
:100840000000412808D19DF8010028B968A0FFF7F1
:1008500093FF002004B010BD21466846FFF7FCFE60
:1008600018B968A0FFF788FF01E00120F2E700BF98
:10087000DAE701B5002000994A05520D03D00122A4
:1008800002EBD12000E0C80A08BD2DE9F0470024A2
:100890000025012602274FF004084FF0010901F05E
:1008A0002EFC05465D48006828405C49096888427E
:1008B00046D001F020FC04465848006828435749B8
:1008C000086001F07AFA814654480068401C05D05F
:1008D00052480068C04301F030FB814604F0070035
:1008E000072811D014F0010F00D1002614F0020FD8
:1008F00000D1002714F0040F01D14FF00008424648
:100900003946304601F0CBFBB9F1040F14D144A0B5
:10091000FFF732FF4A48FFF72FFF00BF4948006842
:1009200000F4E06048490843001D46490860BFF3F1
:10093000408F00BF00BFFEE744A0FFF71DFF02E0AD
:100940004DA0FFF719FFBDE8F08700245348006869
:10095000A0F10060000B52490860084600683E287C
:1009600008D20846017801208840401EC0432B4928
:10097000086003E04FF000402849086001F0BFFB29
:1009800026490968084025490968884203D00120A2
:100990004449086002E00020424908603CE142A06E
:1009A000FFF7EAFE50A0FFF7E7FE5FA0FFF7E4FEC7
:1009B0006DA0FFF7E1FE3B48006800B1F4E0F6E00F
:1009C00000CA9A3B0038014008200800436F6D6D53
:1009D000616E6420737472696E672073697A652032
:1009E0006F766572666C6F770D0A00000A0D000065
:1009F000557365722043616E63656C6C6564200D90
:100A00000A0000004572726F722C20496E70757476
:100A100020616761696E3A200D0A000030000020F5
:100A200057726974652050726F74656374696F6E74
:100A30002064697361626C65642E2E2E0D0A0000BD
:100A4000983E00080CED00E00000FA054572726F58
:100A5000723A20466C6173682077726974652075FC
:100A60006E70726F74656374696F6E206661696C15
:100A700065642E2E2E0D0A00466C617368206D652C
:100A80006D6F7279206E6F74207772697465207053
:100A9000726F7465637465640D0A0000AC10002009
:100AA0002C000020340000200D0A3D3D3D3D3D3D21
:100AB0003D3D3D3D3D3D3D3D3D3D3D3D204D616923
:100AC0006E204D656E75203D3D3D3D3D3D3D3D3DBE
:100AD0003D3D3D3D3D3D3D3D3D3D3D3D3D3D3D3D46
:100AE0003D3D3D0D0A0A00002020446F776E6C6F7B
:100AF000616420496D61676520546F2074686520CA
:100B000053544D33324631307820496E7465726EDD
:100B1000616C20466C617368202D2D2D2D2D2D2D9F
:100B200020310D0A0A000000202055706C6F6164AE
:100B300020496D6167652046726F6D20746865207D
:100B400053544D33324631307820496E7465726E9D
:100B5000616C20466C617368202D2D2D2D2D2D2D5F
:100B600020320D0A0A000000202045786563757464
:100B70006520546865204E65772050726F677261FA
:100B80006D202D2D2D2D2D2D2D2D2D2D2D2D2D2D62
:100B90002D2D2D2D2D2D2D2D2D2D2D2D2D2D2D2D85
:100BA00020330D0A0A00000038A0FFF7E5FD47A03A
:100BB000FFF7E2FDFFF7FAFD0446312C02D102F007
:100BC000F3F929E0322C02D102F0CAFA24E0332CE6
:100BD0000FD14E4840684E490860084600684D49AC
:100BE00008604A490868FFF70EFB4A4800688047DA
:100BF00012E0342C06D148480068012802D1FFF7E2
:100C000044FE09E04448006818B944A0FFF7B4FD69
:100C100002E051A0FFF7B0FDC1E600B585B00121AB
:100C200044F2040001F0D4FD4FF40070ADF8100060
:100C300018208DF8130003208DF8120004A95648DF
:100C400001F010FB4FF48060ADF8100004208DF827
:100C5000130004A9504801F005FB4FF4E130009067
:100C60000020ADF80400ADF80600ADF80800ADF8BE
:100C70000C000C20ADF80A006946484801F053FE0C
:100C80000121464801F0DBFE05B000BD202044698B
:100C90007361626C65207468652077726974652081
:100CA00070726F74656374696F6E202D2D2D2D2DFC
:100CB0002D2D2D2D2D2D2D2D2D2D2D2D2D2D2D2D64
:100CC0002D2D2D2D20340D0A0A0000003D3D3D3D07
:100CD0003D3D3D3D3D3D3D3D3D3D3D3D3D3D3D3D44
:100CE0003D3D3D3D3D3D3D3D3D3D3D3D3D3D3D3D34
:100CF0003D3D3D3D3D3D3D3D3D3D3D3D3D3D3D3D24
:100D00003D3D3D3D3D3D0D0A0A000000000001084B
:100D10003C0000203800002034000020496E76613D
:100D20006C6964204E756D6265722021203D3D3EE8
:100D300020546865206E756D6265722073686F75EA
:100D40006C642062652065697468657220312C20AE
:100D500032206F7220330D00496E76616C69642019
:100D60004E756D6265722021203D3D3E20546865C0
:100D7000206E756D6265722073686F756C64206299
:100D8000652065697468657220312C20322C20330F
:100D9000206F7220340D000000080140003801402F
:100DA00001B500988000009002E00098401E00907D
:100DB00000980028F9D108BD08B50121502001F0A4
:100DC00007FD10208DF8030003208DF802004FF47A
:100DD000A050ADF800006946314801F043FA4820C0
:100DE0008DF8030003208DF802004FF40060ADF889
:100DF000000069462A4801F035FA10208DF80300FA
:100E000003208DF802000120ADF800006946254856
:100E100001F028FA08BD00B50146002220E00620B6
:100E2000FFF7BEFF11F0800F04D04FF480501C4B31
:100E3000186103E04FF48050194B58610620FFF70A
:100E4000AFFF4FF48060164B18614806010E062074
:100E5000FFF7A6FF4FF48060114B5861501CC2B2DF
:100E6000082ADCDB00BD70B50024002514E0600614
:100E7000040E4FF400610A4801F085FA04434FF470
:100E80008060074908610620FFF78AFF4FF4806001
:100E900003494861681CC5B2082DE8DB204670BDD7
:100EA000001001400018014010B5FFF7DCFF10BD35
:100EB00010B504462046FFF7AEFF10BD10B5FFF792
:100EC0007BFF0120D649086010BD10B50120D44930
:100ED000091D08600520FFF7EBFFFFF7E5FF04465B
:100EE0000120CF490860204610BD10B50120CC4933
:100EF000091D08609020FFF7DBFF0020FFF7D8FFF7
:100F00000020FFF7D5FF0020FFF7D2FFFFF7CCFF4F
:100F1000C4490870FFF7C8FFC34908700120C049E1
:100F2000086010BD10B5012402E0FFF7CEFF0446B3
:100F300014F0010FF9D110BD10B50120B849091DF9
:100F400008600620FFF7B4FF0120B549086010BD16
:100F500010B50120B249091D08600420FFF7A8FF61
:100F60000120AF490860FFF7DDFF10BD10B501207B
:100F7000AB49091D08605020FFF79AFF0120A849DE
:100F80000860091D0860FFF793FF0020FFF790FF3E
:100F90000120A3490860FFF7C5FF10BD2DE9F0410E
:100FA00004460E461746002501209D49091D08608C
:100FB0000B20FFF77DFFC4F30740FFF779FFC4F371
:100FC0000720FFF775FFE0B2FFF772FF0020FFF781
:100FD0006FFF03E0FFF768FF70556D1CBD42F9D34A
:100FE00001208F490860BDE8F08110B50446FFF785
:100FF000BDFFFFF7A1FF01208949091D08602020DE
:10100000FFF756FFC4F30740FFF752FFC4F3072072
:10101000FFF74EFFE0B2FFF74BFF01208049086069
:10102000FFF780FF10BD70B505460E46002405E0B1
:1010300029190803FFF7D9FF601C84B2B442F7DB1B
:1010400070BD2DE9F04105460C4690460027284624
:10105000FFF7CBFFFFF78AFFFFF76EFF0120704914
:10106000091D0860AD20FFF723FFC5F30740FFF718
:101070001FFFC5F30720FFF71BFFE8B2FFF718FFBC
:101080002078FFF715FF6078FFF712FF0120644911
:101090000860022718E0782600E0761E002EFCD1BA
:1010A00001205F49091D0860AD20FFF701FF3946A7
:1010B0007F1C605CFFF7FCFE39467F1C605CFFF71D
:1010C000F7FE0120564908604745E4D3642600E056
:1010D000761E002EFCD1FFF73BFF01205049091D71
:1010E0000860FFF71FFFBDE8F0812DE9F0410546DC
:1010F0000C4617460026FFF739FFFFF71DFF0120BA
:101100004749091D0860AD20FFF7D2FEC5F307402F
:10111000FFF7CEFEC5F30720FFF7CAFEE8B2FFF7E0
:10112000C7FE2078FFF7C4FE6078FFF7C1FE0120FC
:101130003B490860022613E001203949091D086077
:10114000AD20FFF7B5FE3146761C605CFFF7B0FEC0
:101150003146761C605CFFF7ABFE01203049086029
:10116000BE42E9D3FFF7F4FE01202D49091D0860B6
:10117000FFF7D8FEBDE8F0812DE9F0470646884626
:1011800014464FEA1639C6F30B0ACAF58055AC422D
:1011900000DC25462BE04FEA09304FF4805223490A
:1011A000FFF7FCFE002707E018F8070007EB0A012D
:1011B0001E4A5054781C87B2AF42F5DB4FEA093023
:1011C0004FF480521949FFF73CFFAC4200D10FE0C9
:1011D00009F101094FF0000AA8442E44601B84B2B3
:1011E000B4F5805F02DD4FF4805500E02546D2E77C
:1011F00000BFBDE8F08710B500240CE004EBC4117B
:101200004FF4A02202EBC1004FF481620849FFF7BE
:10121000C5FE601CC4B2FF2CF0DB012010BD000035
:10122000101801404A1000204B100020E814002044
:10123000E824002001B5009800EB8000009002E057
:101240000098401E009000980028F9D108BD08B50C
:101250000121602001F0BCFA10208DF8030003206A
:101260008DF802004FF40070ADF800006946CE48DA
:1012700000F0F8FF10208DF8030003208DF8020025
:101280004FF4F040ADF800006946C84800F0EAFFAE
:1012900008BD4FF48042C54B14331A6092101A6097
:1012A000002118E010F0800F05D04FF40062BF4B12
:1012B00010331A6004E04FF40062BC4B14331A6020
:1012C0004FF40072B84B14331A601B1F1A604206A9
:1012D000100E4A1CD1B20829E4DB4FF48042B34B14
:1012E00010331A6070474FF48042B04B14331A60C9
:1012F00092101B1F1A60002118E010F0800F05D01B
:101300004FF40062A94B10331A6004E04FF40062FE
:10131000A64B14331A604FF40072A34B14331A60B7
:101320001B1F1A604206100E4A1CD1B20829E4DBCA
:101330004FF480429D4B10331A60704730B5002443
:1013400018E00020FFF7A5FF04F1B001C8B2FFF7D5
:10135000A0FF0020FFF79DFF1020FFF79AFF002558
:1013600004E00020FFF7BFFF681CC5B2812DF8DB49
:10137000601CC4B2082CE4DB30BD30B5002418E09A
:101380000020FFF786FF04F1B001C8B2FFF781FF2C
:101390000020FFF77EFF1020FFF77BFF002504E011
:1013A000F020FFF7A0FF681CC5B2802DF8DB601CA1
:1013B000C4B2082CE4DB30BD10B5FFF748FF4FF492
:1013C00000507A49103108601E20FFF733FF4FF4B8
:1013D00000507649143108601E20FFF72BFF4FF4B0
:1013E00000507249103108606420FFF723FFE220AB
:1013F000FFF74FFF0A20FFF71DFFA220FFF749FF6D
:10140000A020FFF746FFC820FFF743FFF820FFF7B3
:1014100040FF0020FFF73DFF2320FFF73AFF812028
:10142000FFF737FF3F20FFF734FF2F20FFF731FF93
:10143000B020FFF72EFFAF20FFF72BFFA620FFF70E
:1014400028FFFFF77BFF10BD30B504460D46681C32
:1014500085B2042C05DA04F1B401C8B2FFF719FF14
:1014600004E004F1AC01C8B2FFF713FFC5F30311A8
:1014700001F11000FFF70DFF05F00F00FFF709FF66
:1014800030BD2DE9FF47054689461646A6F12001E5
:101490004FF4A71202EB011010226946FFF77EFD00
:1014A000E846002412E0291988B24946FFF7CCFF2C
:1014B000002707E098F80000FFF715FF08F1010882
:1014C000781CC7B2082FF5DB601CC4B2022CEADB23
:1014D000BDE8FF872DE9F04788B0064689461446E7
:1014E0006078A0F1A1012078A1385E2202FB0010F3
:1014F0004FF4801101EB401A202269465046FFF755
:101500004DFDE846002512E0711988B24946FFF703
:101510009BFF002707E098F80000FFF7E4FE08F1C2
:101520000108781C87B2102FF5DB681C85B2022DEC
:10153000EADB08B0BDE8F0872DE9F04106460D462C
:101540001446002719E077B92078802801DD0127AB
:1015500013E02278E9B23046FFF793FF641C05F1EF
:10156000080085B209E00027224629463046FFF7E9
:10157000B1FFA41C05F1100085B220780028E2D14B
:10158000BDE8F08170B504460D461646012C0ADD13
:10159000052C08DA782D06DA611E4906080E324657
:1015A0002946FFF7C9FF70BD001401400018014033
:1015B00010B50121402001F0FEF810BD2DE9F041E9
:1015C00004460D46164601F06FFB06E0206807BA98
:1015D00007480760241D681E85B2002DF6D1044817
:1015E0000068B04202D00020BDE8F0810120FBE796
:1015F000003002402DE9F04105460F461646002412
:1016000000BF07E037F81410284600F054FCAD1C6A
:10161000601C84B2B442F5DBBDE8F0812DE9F041F5
:1016200005460C4616460027414800EB852700F08A
:10163000FAFA284605EBD0714910B5EB410102D109
:10164000384600F035FB204604EBD0714910A4EB7E
:101650004101012901D1601C84B2B4F5806F0BDA1D
:10166000A04604EBD870421031463846FFF7C2FF5F
:1016700001203049087008E0B4F5806F05D14FF4BF
:10168000007231463846FFF7B5FF00F0D8FABDE8E2
:10169000F081F0B5ADF22C4D002648E0002444E086
:1016A00004EBC4104FF4C04101EBC0064FF481625B
:1016B00009A93046FFF772FCDDF828542A4640F2AB
:1016C000011109A8FFF77AFF38B91BA200210420F5
:1016D000FFF732FF0DF22C4DF0BDBDF82610BDF81E
:1016E00024000AAAFFF79AFF64206043164909788C
:1016F00090FBF1F73A4615A101A802F057F901AAAB
:1017000000210420FFF718FFBDF82600B0F5806F18
:1017100009DAAA21114801F0FEFB11A200210420E0
:10172000FFF70AFFD6E7601C84B2FF2CB8DBB5E7F1
:10173000000001080F000020C9D5D0B4B3CCD0F20E
:10174000CAA7B0DC0000000016000020C9D5D0B444
:10175000B3CCD0F2D6D025336400000002FC0008E0
:10176000C9D5D0B4CDEAB3C9000000002DE9F041DD
:1017700004460D461646002704EBC4104FF4C04142
:1017800001EBC007B5F5806F09DA4FF4816231468D
:101790003846FFF7F1FC07A000F004F908E04FF429
:1017A000816231463846FFF7E7FC03A000F0FAF803
:1017B000BDE8F0814F4B00004E65787400000000DA
:1017C00010B586B004460121082001F001F800217F
:1017D0004FF4800001F009F80121880401F005F8B8
:1017E0000121084600F0F4FF7C4801F059F84FF45D
:1017F0008060ADF8140003208DF8160018208DF8D5
:10180000170005A9764800F02DFD4FF40060ADF8F3
:10181000140048208DF8170005A9714800F022FD3A
:1018200027208DF8000001208DF801008DF80200BE
:101830008DF80300684600F06EF901940020ADF8C1
:101840000800ADF80A00ADF80C00ADF810000C204F
:10185000ADF80E0001A9614801F065F8012240F2DF
:1018600025515E4801F0F7F801215C4801F0E7F8E6
:1018700006B010BD5B494A88091D8854091F498874
:10188000491C89B2574A518040F22442914202DBFE
:101890000021544A518053494988012902D0022924
:1018A0002ED108E04F4909795A2903D000214D4A29
:1018B000518011803BE04B494979B039052919D253
:1018C000DFE801F003070B0F13000821454A1180E0
:1018D00014E00821434A118010E00821414A118098
:1018E0000CE008213F4A118008E040F20A413D4ADD
:1018F000118003E000213B4A118000BF00BF16E0C9
:1019000038494988374A1288914209D135490988AE
:1019100031B10121344A11700021324A518005E071
:101920003049098811B900212E4A518000BF00BFFB
:101930002C4949882B4A1288914206DD2949098899
:1019400019B10021274A51801180704710B540F22B
:101950002551224801F064F958B1204801F0E0F81F
:10196000C4B240F225511D4801F084F92046FFF72A
:1019700081FF10BD00BF1949098811F0400FFAD04E
:101980001649091D0880704730B502460B460024F1
:1019900005E012F8010BFFF7EDFF601CC4B29C429A
:1019A000F7DB30BD00B5024603E01078FFF7E2FF39
:1019B000521C10780028F8D100BD10B5044640F242
:1019C0002441201D02F038F900206080208010BDE5
:1019D00010B50448FFF7F1FF10BD000000480040BB
:1019E000000C0140F02800204C1000202C482D490C
:1019F0000968D1F802200260C988818001202A4943
:101A00000870704701202949087070470120284953
:101A100008707047012027490870704710B54FF4CF
:101A2000816220480168891C234802F0C0F82248DE
:101A3000D0F80444224640F20111FFF7BFFD18B967
:101A40001EA0FFF7AFFF04E01B4A51881088FFF784
:101A50008DFE10BD10B500240FE0124800684078DC
:101A6000184911F83410884205D1164901EBC40118
:101A70004868804703E0601CC4B2052CEDD300BF6A
:101A800010BD70B505460C46064805600E4804605A
:101A900000680088042801DBFFF7DCFF70BD000050
:101AA00080100020781000200D0000201000002081
:101AB0000E000020110000204031002041676169C4
:101AC0006E000000501000207C1000200948804764
:101AD00009480047FEE7FEE7FEE7FEE7FEE7FEE710
:101AE000FEE7FEE7FEE7FEE704480549054A064B28
:101AF000704700000505000831010008703B002018
:101B000070410020703D0020703D002031490143AC
:101B1000314A1160704770B5002100230F22C4784C
:101B20000CB32D4C246804F4E064C4F5E064210A8D
:101B3000C1F10403CA40447804FA03F184781440E4
:101B400021430901254C0678A155047804F01F05AE
:101B50000124AC4005786D114FF0E02606EB8505B9
:101B6000C5F8004109E0047804F01F050124AC40E9
:101B70001B4D0678761145F8264070BD194A0A407B
:101B80000243154B1B1F1A60704739B1124A121DD0
:101B900012680243104B1B1D1A6006E00E4A121D0C
:101BA000126882430C4B1B1D1A607047042808D131
:101BB0004FF0E021096941F004014FF0E02211618A
:101BC00007E04FF0E021096921F004014FF0E02225
:101BD000116170470000FA050CED00E000E400E040
:101BE00080E100E080FFFF1F01460020FE4A1068F0
:101BF00000F03800084310607047FB49096821F085
:101C00000801F94A116011460968014311607047E3
:101C1000F549096821F01001F34A1160114609687D
:101C2000014311607047F148EF494860F04848604F
:101C30007047EE48EC494860ED4848607047EA4814
:101C4000006940F08000E84908617047E648006993
:101C500040F08000E449086170470420E249C96807
:101C600011F0010F01D001200EE0DF49C96811F029
:101C7000040F01D0022007E0DB49C96811F0100F02
:101C800001D0032000E00420704700B50246042381
:101C9000FFF7E3FF034603E0FFF7DFFF0346521EB3
:101CA000012B01D1002AF7D102B90523184600BD46
:101CB00030B5044604254FF43020FFF7E6FF054613
:101CC000042D17D1C848006940F00200C6490861D8
:101CD00008464461006940F0400008614FF430203C
:101CE000FFF7D3FF0546C048006941F6FD71084083
:101CF000BD490861284630BD10B504244FF430209A
:101D0000FFF7C3FF0446042C16D1B748006940F022
:101D10000400B54908610846006940F040000861C8
:101D20004FF43020FFF7B1FF0446AF48006941F699
:101D3000FB710840AC490861204610BD00B5024661
:101D40000423FFF78AFF034603E0FFF786FF0346FD
:101D5000521E012B01D1002AF7D102B905231846E2
:101D600000BD10B504244FF43020FFF7E7FF044610
:101D7000042C16D19C48006940F004009A4908617F
:101D80000846006940F0400008614FF43020FFF73A
:101D9000D5FF04469448006941F6FB71084092491A
:101DA0000861204610BD00208F49C96911F0020F5B
:101DB00001D0012000E00020704730B5A5250424A3
:101DC000FFF7F1FF00B100254FF43020FFF75DFF72
:101DD0000446042C3AD18548834988608448886049
:101DE0000846006940F0200008610846006940F09C
:101DF000400008614FF43020FFF747FF0446042CF1
:101E00001BD17948006941F6DF71084076490861C5
:101E10000846006940F01000086176480580E0023D
:101E2000FFF733FF0446052C10D06F48006941F6D8
:101E3000EF7108406C49086108E0052C06D06A483B
:101E4000006941F6EF71084067490861204630BDDE
:101E500078B506460C46042500200090E802FFF7FE
:101E600014FF0546042D24D15F48006940F00100AD
:101E70005D4908613480E802FFF707FF0546042D3D
:101E800010D1B01C0090200C00990880E802FFF7E8
:101E9000FCFE05465448006941F6FE71084052496F
:101EA000086106E05048006941F6FE7108404E495D
:101EB0000861284678BD70B504460D460426F00238
:101EC000FFF7E3FE0646042E11D14748006940F0B3
:101ED0000100454908612580F002FFF7D6FE06465D
:101EE0004148006941F6FE7108403F4908613046AB
:101EF00070BD70B505460E460424E002FFF7C5FE2E
:101F00000446042C17D1394837498860384888601E
:101F10000846006940F0100008612E80E002FFF7DB
:101F2000B4FE0446052C06D02F48006941F6EF7137
:101F300008402D490861204670BD2DE9F043044654
:101F40004FF6FF763746B046B1460425E443E6B285
:101F5000C4F30727C4F307484FEA1469E802FFF700
:101F600094FE0546042D49D120481F498860204829
:101F700088600846006940F010000861FF2E06D016
:101F80001C4808300680E802FFF77FFE0546042D56
:101F900008D1FF2F06D017480A300780E802FFF764
:101FA00074FE0546042D0AD1B8F1FF0F07D0114881
:101FB0000C30A0F80080E802FFF767FE0546042D0C
:101FC0000AD1B9F1FF0F07D00A480E30A0F80090EF
:101FD000E802FFF75AFE0546052D0FD002480069BA
:101FE00041F6EF71084007E00020024023016745F9
:101FF000AB89EFCD00F8FF1F664908612846BDE8B0
:10200000F08330B5054604244FF43020FFF73DFE41
:102010000446042C41D160485E4988605F4888606E
:102020000846006940F0200008610846006940F059
:10203000400008614FF43020FFF727FE0446042CCF
:1020400022D15448006941F6DF71084051490861C6
:102050000846006940F0100008611DB10020504999
:10206000088002E0A5204E4908804FF43020FFF799
:102070000CFE0446052C10D04648006941F6EF716D
:1020800008404449086108E0052C06D04148006931
:1020900041F6DF7108403F490861204630BDF0B588
:1020A00005460E46174604243B483A4988603B489B
:1020B0008860E002FFF7E9FD0446042C19D1354899
:1020C000006940F010003349086147F0F8003043E0
:1020D00028433349891C0880E002FFF7D6FD0446F7
:1020E000052C06D02B48006941F6EF7108402949BC
:1020F00008612046F0BD2748C06980087047254820
:10210000006A704700202349096811F0200F01D0B0
:10211000012000E00020704729B11E4A12690243E5
:102120001C4B1A6104E01B4A12698243194B1A6165
:10213000704701460020012908D1164AD26912F0E1
:10214000010F01D0012008E0002006E0114AD2680A
:102150000A4201D0012000E0002070470D49C8600C
:10216000704704200B49C96811F0010F01D001200C
:102170000EE00849C96811F0040F01D0022007E001
:102180000449C96811F0100F01D0032000E00420B9
:10219000704700000020024023016745AB89EFCD66
:1021A00000F8FF1F10B50446CA48844208D1012137
:1021B000042000F027FB0021042000F023FB46E070
:1021C000C548844208D10121082000F01BFB0021F2
:1021D000082000F017FB3AE0C048844208D10121F2
:1021E000102000F00FFB0021102000F00BFB2EE070
:1021F000BB48844208D10121202000F003FB0021CC
:10220000202000F0FFFA22E0B648844208D10121E4
:10221000402000F0F7FA0021402000F0F3FA16E029
:10222000B148844208D10121802000F0EBFA00215E
:10223000802000F0E7FA0AE0AC48844207D101218F
:10224000801500F0DFFA0021A01500F0DBFA10BDC8
:1022500010B50121084600F0D5FA0021012000F058
:10226000D1FA10BD2DE9F0410246002500260020DC
:1022700000230024002791F803C00CF00F0591F80B
:1022800003C01CF0100F03D091F802C04CEA050502
:1022900091F800C0BCF1000F31D0146800202BE091
:1022A0004FF0010C0CFA00F3B1F800C00CEA030681
:1022B0009E4220D183004FF00F0C0CFA03F7BC4371
:1022C00005FA03FC4CEA040491F803C0BCF1280FA2
:1022D00006D14FF0010C0CFA00FCC2F814C00AE061
:1022E00091F803C0BCF1480F05D14FF0010C0CFA76
:1022F00000FCC2F810C0401C0828D1D31460B1F80B
:1023000000C0BCF1FF0F34DD546800202EE000F166
:10231000080C4FF0010808FA0CF3B1F800C00CEA01
:1023200003069E4221D183004FF00F0C0CFA03F7F5
:10233000BC4305FA03FC4CEA040491F803C0BCF169
:10234000280F05D100F1080C08FA0CF8C2F8148027
:1023500091F803C0BCF1480F07D100F1080C4FF011
:10236000010808FA0CF8C2F81080401C0828CED3E7
:102370005460BDE8F0814FF6FF7101800221817049
:102380000421C17070470246002093680B4201D0BF
:10239000012000E0002070470146886880B2704745
:1023A00002460020D3680B4201D0012000E000204B
:1023B00070470146C86880B270470161704741614B
:1023C00070470AB1016100E041617047C160704728
:1023D0004FF480320A43826181618261826982693D
:1023E000704702460020424B18684FF68073184031
:1023F00040EA021008433E4B186070473D49C861EF
:102400007047F0B50A46002300240021002500F0A3
:102410000046B6F1004F02D1354EF16901E0344E6D
:102420007168C0F3034583B200F44016B6F5401F4F
:1024300008D121F070612E4E766826F070662C4F20
:102440007E6012E000F48016B6F5801F06D10326E8
:1024500006FA05F4A14341F0706106E0460D36012D
:1024600003FA06F6B14341F0706122B1460D360120
:1024700003FA06F6314300F00046B6F1004F02D1F0
:102480001B4EF16101E01A4E7160F0BD30B50022C3
:102490008B071C0F0F2303FA04F2154B08338C1023
:1024A00053F824309343124C08348D1044F82530EF
:1024B00023468C1053F824308C07240F00FA04F4C0
:1024C00023430B4C08348D1044F8253030BD0A49A5
:1024D0000860704700080140000C014000100140F6
:1024E0000014014000180140001C01400020014080
:1024F0000000014000002042DC002042DD4800686E
:1025000040F00100DB49086008464068DA490840AD
:10251000D849486008460068D8490840D54908604D
:102520000846006820F4802008600846406820F4CF
:10253000FE0048604FF41F0088607047CD4909686D
:1025400021F48031CB4A11601146096821F48021C1
:102550001160B0F5803F03D0B0F5802F0ED106E0BA
:10256000C449096841F48031C24A116007E0C14999
:10257000096841F4A021BF4A116000E000BF00BF1C
:10258000704710B501460022002300204A11012A9D
:1025900002D1B84C236806E0022A02D1B54C236A66
:1025A00001E0B44C636A01F01F02012494401C4214
:1025B00001D0012000E0002010BD38B500200090BF
:1025C0000024002500BF3120FFF7DBFF05460098FF
:1025D000401C00900098B0F5A06F01D0002DF2D003
:1025E0003120FFF7CEFF08B1012400E0002420468F
:1025F00038BD014600209F4A106820F0F80040EAEC
:10260000C100106070479E49086070470246002074
:10261000984B586820F47C1042EA01031843954B0C
:102620005860704796490866704701460020914AF5
:10263000506820F003000843506070478D484068A0
:1026400000F00C007047014600208A4A506820F0D4
:10265000F00008435060704701460020854A5068EA
:1026600020F4E06008435060704701460020814A32
:10267000506820F4605040EAC1005060704729B1B2
:102680007C4A527A02437B4B5A7204E0794A527A6E
:102690008243784B5A7270477A4908607047014606
:1026A0000020744A506820F440400843506070474E
:1026B0000021754A11706F4A82F82010012802D05B
:1026C000042808D103E001216F4A117004E00521BC
:1026D0006D4A117000E000BF00BF70476B49086091
:1026E00070476449096A0143624A11627047674949
:1026F00044390860704730B50021002200240023CF
:102700005C4D6D6805F00C0121B1042905D0082944
:1027100023D105E05E4D056022E05D4D05601FE0C0
:10272000544D6D6805F47012524D6D6805F4803497
:10273000022505EB92421CB9564D554305600BE04E
:102740004C4D6D6815F4003F03D0524D5543056064
:1027500002E04F4D5543056002E04D4D056000BF5E
:1027600000BF444D6D6805F0F00109094A4D6B5CEE
:102770000568DD4045603F4D6D6805F4E061090A7C
:10278000454D6B5C4568DD4085603A4D6D6805F4EC
:102790006051C90A404D6B5C4568DD40C560354DF0
:1027A0006D6805F44041890B3C4D6B5CC568B5FB19
:1027B000F3F5056130BD29B12E4A526902432D4B14
:1027C0005A6104E02B4A526982432A4B5A6170478E
:1027D00029B1284A92690243264B9A6104E0254AAE
:1027E00092698243234B9A61704729B1214AD26989
:1027F0000243204BDA6104E01E4AD26982431D4B3A
:10280000DA61704729B11B4AD2680243194BDA607A
:1028100004E0184AD2688243164BDA60704729B147
:10282000144A12690243134B1A6104E0114A1269F7
:102830008243104B1A617047144940390860704751
:102840000F49C86470470B49C87170470948406A0E
:1028500040F0807007494862704701460020054AF1
:1028600092680A4201D0012000E00020704701492F
:1028700088727047001002400000FFF8FFFFF6FE6C
:1028800000004242D80042422010024080044242EE
:1028900000127A0000093D008610002096100020EA
:1028A00010B50446FB48844209D101218803FFF793
:1028B000A9FF00214FF48040FFF7A4FF32E0F64863
:1028C000844209D101214804FFF7A9FF00214FF4F8
:1028D0000030FFF7A4FF25E0F048844209D1012130
:1028E0008804FFF79CFF00214FF48020FFF797FF3B
:1028F00018E0EB48844209D10121C804FFF78FFF9B
:1029000000214FF40020FFF78AFF0BE0E5488442E6
:1029100008D101210805FFF782FF00214FF4801044
:10292000FFF77DFF10BD2DE9F04786B005460E4646
:102930000024A24600BFA1460027B08900B100BF15
:102940002F462C8A4CF6FF700440F08804432C82FA
:10295000AC894EF6F3100440B08831890843718980
:1029600008430443AC81AC8A4FF6FF400440B08971
:102970000443AC8201A8FFF7BEFEC648874202D1DD
:10298000DDF810A001E0DDF80CA0A88910F4004FDC
:1029900008D00AEBCA0000EB0A1031684900B0FB0E
:1029A000F1F807E00AEBCA0000EB0A103168890071
:1029B000B0FBF1F86420B8FBF0F0040120096421B9
:1029C00001FB1089A88910F4004F08D0322000EBD9
:1029D000C900B0FBF1F000F00700044308E032202A
:1029E00000EB09106421B0FBF1F000F00F0004438C
:1029F0002C8106B0BDE8F0874FF41651016000212C
:102A00008180C18001810C21418100218181704739
:102A100010B502460020108A4FF2FF0318400B88C1
:102A20004C8823438C882343CC882343184310824B
:102A300010BD0021018041808180C180704721B19B
:102A4000828942F40052828104E082894DF6FF734C
:102A50001A4082817047F0B5034600240026002505
:102A60000020A1F510676A3F00D100BF1846C1F3EE
:102A7000421401F01F06012707FA06F5012C01D1C7
:102A80000C3004E0022C01D1103000E014301AB1F7
:102A900007682F43076002E00768AF430760F0BD97
:102AA0001AB1838A0B43838202E0838A8B43838239
:102AB0007047028A4FF6F0731A400282028A0A4374
:102AC0000282704782894FF2FF731A4082818289A5
:102AD0000A438281704721B1828942F002028281D9
:102AE00004E082894FF6FD731A4082817047028AA2
:102AF0004FF6DF731A400282028A0A43028270474D
:102B000021B1028A42F48042028204E0028A4BF63A
:102B1000FF731A4002827047C1F308028280704737
:102B200001468888C0F308007047818941F001019F
:102B300081817047028BD2B20283028B42EA01226A
:102B400002837047028B02F47F420283028B0A43A6
:102B50000283704721B1828A42F02002828204E01F
:102B6000828A4FF6DF731A408282704721B1828ACF
:102B700042F01002828204E0828A4FF6EF731A401C
:102B80008282704721B1828A42F00802828204E088
:102B9000828A4FF6F7731A408282704721B1828988
:102BA00042F40042828103E08289C2F30E028281F4
:102BB000704721B1828A42F40062828204E0828AF4
:102BC0004FF2FF731A4082827047828A4FF6FB737E
:102BD0001A408282828A0A438282704721B1828AA5
:102BE00042F00202828204E0828A4FF6FD731A40AC
:102BF0008282704702460020B1F5007F00D100BFFD
:102C000013880B4201D0012000E00020704701F43E
:102C10000072B2F5007F00D100BFCA430280704746
:102C200070B502460024002300250020A1F510669F
:102C30006A3E00D100BFC1F3421501F01F03012617
:102C400006FA03F3012D02D19689334006E0022DE6
:102C500002D1168A334001E0968A33400C120126D5
:102C600006FA04F41688344013B10CB1012000E0D8
:102C7000002070BD10B500220023A1F510646A3C4D
:102C800000D100BF0A1201249440A3B2DC430480A7
:102C900010BD0000003801400044004000480040E2
:102CA000004C0040005000400120104988607047EF
:102CB00001460E4801600068704710B502460B4699
:102CC000002100BF04E052F82100084C2060491C9C
:102CD0009942F8D30548006810BD04480068704761
:102CE000024908717047014800797047003002407E
:102CF00010B56FF00400FEF759FF31480068314904
:102D0000B0FBF1F0304908700846007800EB400154
:102D1000C1EBC0104FF6FF7101EAC0002B490880DB
:102D200010BD0146284A12784A434FF0E0235A6109
:102D300000229A611A46126942F001021A6100BF2C
:102D40004FF0E022106910F0010F02D010F4803F24
:102D5000F6D04FF0E022126922F001024FF0E0239A
:102D60001A6100229A6170470146184A12884A4344
:102D70004FF0E0235A6100229A611A46126942F02C
:102D800001021A6100BF4FF0E022106910F0010F3C
:102D900002D010F4803FF6D04FF0E022126922F00A
:102DA00001024FF0E0231A6100229A61704701B5D9
:102DB00002E00098401E009000980028F9D108BD5C
:102DC0001800002000127A009A1000209C100020A9
:102DD000014600BF704700BF494A128812F0400FF9
:102DE000FAD0C2B2464B1B1D1A80704710B586B090
:102DF0000446012144F20400FFF7EAFC4FF400709E
:102E0000ADF8140003208DF8160018208DF8170077
:102E100005A93C48FFF726FA4FF48060ADF814008E
:102E200004208DF8170005A93648FFF71BFA252066
:102E30008DF8000003208DF801008DF802000120BC
:102E40008DF803006846FEF766FE01940020ADF899
:102E50000800ADF80A00ADF80C00ADF810000C2029
:102E6000ADF80E0001A92648FFF75DFD012240F2F2
:102E700025512348FFF7EFFD01212148FFF7DFFD32
:102E800006B010BD10B540F225511D48FFF7C8FE31
:102E900010B31B48FFF744FEC4B21B48008810F46F
:102EA000004F2BD11848008810F4804F0CD00A2C0A
:102EB00003D000201449088020E01348008840F423
:102EC00000401149088019E00D2C06D10E480088F9
:102ED00040F480400C49088010E00B480088C0F3A3
:102EE0000D000A490C5408480088401C0649088017
:102EF00008460088C72801DD0020088010BD0000BA
:102F00000038014000080140A01000204835002092
:102F100001460888704770B586B006460D46002405
:102F20000AE01F49022202FB0410FFF7F1FF01A98A
:102F300021F81400601CC4B2082CF2DB3046FFF705
:102F4000E7FFA8421BD0FEF76EFE3046FEF7B0FE4C
:102F50003046C0F3470401A820F8145000240AE0CA
:102F600001AA32F814100E4A022303FB0420FEF7D4
:102F7000A2FF601CC4B2082CF2DBFEF760FE042046
:102F8000FEF783FE0749087004E00420FEF77DFE8B
:102F900004490870034800780028F6D006B070BDD8
:102FA00000FC0008A81000203EB525A207CA8DE845
:102FB0000700002425A0FDF7DFFB334800F0C2F92D
:102FC0000446002C25DD3148FDF7D6FB3048FDF7DF
:102FD000D3FB21466846FDF715FB2EA0FDF7CCFB81
:102FE0006846FDF7C9FB2EA0FDF7C6FB2FA0FDF735
:102FF000C3FB01203349087006E05A213248FFF72D
:103000008AFF00202F4908702E4800780028F4D14C
:1030100014E0601C03D12DA0FDF7AEFB0EE0A01C58
:1030200003D13AA0FDF7A8FB08E0E01C03D13EA0C5
:10303000FDF7A2FB02E042A0FDF79EFB3EBD0000B3
:1030400020202020202020202020000057616974AB
:10305000696E6720666F72207468652066696C65AA
:1030600020746F2062652073656E74202E2E2E20D2
:103070002870726573732027612720746F20616246
:103080006F7274290A0D000010360020E43E00081B
:10309000103A00200A0D2053697A653A200000009A
:1030A0002042797465730D0A000000002D2D2D2D2E
:1030B0002D2D2D2D2D2D2D2D2D2D2D2D2D2D2D0A63
:1030C000000000000000002002FC00080A0A0D5465
:1030D000686520696D6167652073697A6520697329
:1030E00020686967686572207468616E207468651D
:1030F00020616C6C6F776564207370616365206D0F
:10310000656D6F7279210A0D000000000A0A0D56E4
:103110006572696669636174696F6E206661696C66
:103120006564210A0D0000000D0A0A41626F727485
:10313000656420627920757365722E0A0D000000A7
:103140000A0D4661696C656420746F207265636561
:10315000697665207468652066696C65210A0D00D2
:1031600010B500240DA0FDF707FBFDF71FFB43285A
:103170000FD14FF4E02217A11C4800F0CDFA04460D
:103180001CB11BA0FDF7F8FA06E024A0FDF7F4FA45
:1031900002E02BA0FDF7F0FA10BD00000A0A0D5363
:1031A000656C656374205265636569766520466960
:1031B0006C65202E2E2E2028707265737320616E30
:1031C00079206B657920746F2061626F7274290AAF
:1031D0000D00000055706C6F61646564466C61732E
:1031E00068496D6167652E62696E00000000010824
:1031F0000A0D4572726F72204F63637572656420A9
:103200007768696C65205472616E736D6974746956
:103210006E672046696C650A0D0000000A0D46695C
:103220006C6520547261736D6974746564205375A4
:10323000636365737366756C6C79200A0D0000001A
:103240000D0A0A41626F7274656420627920757399
:1032500065722E0A0D00000070B505460C4606E0AA
:103260002846FDF794FA012801D1002070BD200006
:10327000A4F10104F4D1401EF8E710B5044620463D
:10328000FDF76CFA002010BD2DE9F84304460D4609
:1032900090460020286041466846FFF7DDFF18B1E0
:1032A0004FF0FF30BDE8F8839DF80000182813D0D8
:1032B00006DC012809D0022809D0042820D109E021
:1032C00041281AD061281BD118E080271BE04FF459
:1032D000806718E00020E5E741466846FFF7BCFF3D
:1032E00040B99DF80000182804D14FF0FF30286045
:1032F0000020D7E74FF0FF30D4E700BF0120D1E72F
:103300004FF0FF30CEE700BF9DF80000207001268F
:1033100009E0A0194146FFF79FFF10B14FF0FF30C1
:10332000C0E7701C86B2781D8642F2DB6178A07817
:1033300080F0FF00814202D04FF0FF30B2E72F60F3
:103340000020AFE72DE9F04FADF22C4D06460020EE
:103350000190F748F74908604FF0000B4FF0000A62
:103360000020029000BF002700200390B04600BF5D
:103370004FF4801204A909A8FFF786FF10B10128B5
:103380007ED1D0E04FF0000A0498B0F1FF3F01D0A9
:1033900070B907E00620FFF770FF00200DF22C4DFA
:1033A000BDE8F08F0620FFF768FF01200390B8E02A
:1033B0009DF82500F9B2884203D01520FFF75DFF84
:1033C000AFE0002F6ED19DF82700002863D00025C4
:1033D0000DF1270405E014F8012B28466D1CD64991
:1033E0000A54207808B1FF2DF5DD002228466D1C17
:1033F000D1490A540025641C05E014F8012B284625
:103400006D1C05A90A542078202801D0102DF4DB6A
:10341000002228466D1C05A90A5401A905A8FDF73C
:103420001BF90198B0F5002F08DB1820FFF725FFE6
:103430001820FFF722FF4FF0FF30AFE70198FDF7AC
:1034400018FABE4908600020BD49086010E0B9497B
:103450000968BC4A1288BA4B1B6802FB0310FEF7CE
:1034600027FCB9490870B6480068401CB449086098
:10347000B3480068B1490968884205D2B24800E003
:103480005AE000780428E2D00620FFF7F6FE432039
:10349000FFF7F3FE42E00620FFF7EFFE0120039066
:1034A00083463EE00DF127014046049A00F07FFB81
:1034B000A64806604FF0000923E0A44800680168B0
:1034C0009C480068FEF7C4FC9A48006800689F4961
:1034D00009680968884208D01820FFF7CEFE182036
:1034E000FFF7CBFE6FF0010058E792480068001D1F
:1034F0009049086095480068001D9449086009F1EA
:1035000004090498814506DA8949019808448949E3
:1035100009688842D1D80620FFF7AFFE7F1C012042
:10352000029000BF1CE01820FFF7A7FE1820FFF74D
:10353000A4FE6FF0020031E70298002801DD0AF1D5
:10354000010ABAF1050F07DD1820FFF796FE1820D3
:10355000FFF793FE002021E74320FFF78EFE00BF18
:1035600000BF039800283FF403AF00BF00BFBBF1CA
:10357000000F3FF4F8AE00BF00BF01980EE7014610
:10358000002070472DE9FE4305460F469046012076
:10359000287000206870FF20A870002404E0395DC6
:1035A000E01C2954601C84B2385D08B1FF2CF6DDA4
:1035B0000021E01C29546846D8F80010FDF722F8D5
:1035C0000026201D84B208E03046711C8EB21DF822
:1035D00000202046611C8CB22A541DF806000028E9
:1035E000F2D1264603E00020A855701C86B2832E37
:1035F000F9DBBDE8FE83F0B5074614461D46B5F578
:10360000806F02D34FF4806C01E04FF0800C634672
:103610009D4201D2AC4600E09C461FFA8CF2B3F505
:10362000806F04D14FF0020C81F800C003E04FF02E
:10363000010C81F800C04C706FEA040C81F802C0E4
:103640003E46032007E016F801CB01F800C000F168
:10365000010C1FFA8CF002F1030C6045F3DB9A4277
:103660000EDC1FFA8CF007E04FF01A0C01F800C0D6
:1036700000F1010C1FFA8CF003F1030C6045F3DB41
:10368000F0BD10B503460C46194644F4807200BFE5
:103690004900520012F4807F00D0491C11F4803F91
:1036A00002D041F22100414012F4803FF0D088B2B4
:1036B00010BDF0B505460E460024AF1905E015F81B
:1036C000011B2046FFF7DDFF0446BD42F7D320462D
:1036D0000021FFF7D6FF044620460021FFF7D1FF67
:1036E00004462046F0BD30B502460023541802E0DF
:1036F00012F8015B2B44A242FAD3D8B230BD70B5A8
:1037000005460E46002404E0285DFFF7B6FD601C68
:1037100084B2B442F8DB70BD2DE9F74FADF5A36D6F
:1037200000200190814600248046002617E000001A
:1037300000000108AC100020103A0020B810002052
:10374000B4100020B0100020BC100020C0100020D9
:10375000DDF81C05805D04A98855701CC6B2FF2EDB
:10376000F6DB012001900DF5A46204A944A8FFF73F
:1037700009FF00BF832144A8FFF7C1FF019860B192
:1037800080210DF21310FFF794FF05462812FFF772
:1037900074FDE8B2FFF771FD08E080210DF213100F
:1037A000FFF7A1FF03900398FFF767FD42F2107146
:1037B00002A8FFF751FD30B99DF80800062803D193
:1037C0004FF0010800E0641CB8F1000F01D10A2C91
:1037D000D0D30A2C04D3E0B20DF2245DBDE8F08F03
:1037E000DDF818A5DDF820954FF0010B58E00BF03F
:1037F000FF024B4644A95046FFF7FDFE4FF000087C
:1038000000208DF80800002400BFB9F5806F02D3B6
:103810004FF4806700E08027F91C44A8FFF76FFF92
:10382000019860B139460DF21310FFF742FF0546CB
:103830002812FFF722FDE8B2FFF71FFD08E0394626
:103840000DF21310FFF74FFF03900398FFF715FDDC
:10385000544902A8FFF700FDC0B99DF808000628EA
:1038600014D14FF00108B9450CD9BA44A9EB0709A6
:10387000BBF5E07F01D1FF20AEE70BF101001FFA9D
:1038800080FB04E0BA444FF0000900E0641CB8F18A
:10389000000F01D10A2CB8D30A2C01D3E0B29BE768
:1038A000B9F1000FA3D14FF0000800208DF80800F7
:1038B000002400BF0420FFF7E0FC42F2107102A8D0
:1038C000FFF7CAFC30B99DF80800062802D14FF076
:1038D000010800E0641CB8F1000F01D10A2CE9D303
:1038E0000A2C01D3E0B277E74FF0000800208DF8F2
:1038F0000800002401208DF8100100208DF811012E
:10390000FF208DF81201032604E0002044A9885509
:10391000701CC6B2832EF8DB00BF832144A8FFF7DA
:10392000EEFE80210DF21310FFF7C3FE05462812AC
:10393000FFF7A3FCE8B2FFF7A0FC42F2107102A867
:10394000FFF78AFC30B99DF80800062803D14FF034
:10395000010800E0641CB8F1000F01D10A2CDCD38F
:103960000A2C01D3E0B237E700BF0420FFF785FC43
:1039700042F2107102A8FFF76FFC30B99DF8080001
:10398000062802D14FF0010800E0641CB8F1000FD6
:1039900001D10A2CE9D30A2C01D3E0B21CE70020A4
:1039A0001AE70000A0860100704700000FB41CB5A4
:1039B000074B06AA7B4469460090059800F0C3F9BE
:1039C0000020694600F0D2F91CBC5DF814FB000031
:1039D000B503000070B5044685690068C10601D5CD
:1039E000302600E02026C00708D070BDD4E90121B0
:1039F00030469047206A00F1010020626D1EF5D527
:103A000070BD70B5044685690078C00708D170BDE7
:103A1000D4E9012120209047206A00F101002062B2
:103A20006D1EF5D570BD00002DE9F041064600245D
:103A300010687529314616A511D0AFF30080002813
:103A400003DAC0F1000013A507E031688A0701D549
:103A500011A502E0490704D510A5012401E0AFF348
:103A6000008000210A2306F1240707E0B0FBF3F2EF
:103A700003FB1200303078541046491C0028F5D161
:103A800023462A463046BDE8F04100F0FBB800006E
:103A9000000000002D0000002B00000020000000AE
:103AA0002DE9F0474FF0000A89460446C0F820A0EF
:103AB0002046E1688847002876D0252806D0D4E93A
:103AC00001219047206A401C2062F1E7E16820460E
:103AD00000258847C4F81CA006460027C4F818A093
:103AE0002A2E09D0304600F0CFF938B304EB87080E
:103AF000303EC8F8186019E059F8041B204604EB62
:103B000087029161E1688847012F064618D1E06974
:103B1000002820DA25F020051DE0D8F8180000EB79
:103B2000800006EB40003038C8F818002046E168F5
:103B30008847064600F0A8F90028EED1012F0AD0E8
:103B40002E2E08D12046E16888477F1C0646022FAA
:103B500045F02005C4DBA069002803DA404245F0A7
:103B60000105A061E80701D025F01005B6B1A6F166
:103B70004100192802D8203645F400654A463146EE
:103B8000204625604D46FCF71DFB58B1012806D0A4
:103B9000ED1D25F0070000F1080989E704E005F1B3
:103BA000040985E730468AE7206ABDE8F087032AE2
:103BB00040F2308010F0030C00F0158011F8013B4A
:103BC000BCF1020F624498BF11F801CB00F8013B31
:103BD00038BF11F8013BA2F1040298BF00F801CBF5
:103BE00038BF00F8013B11F0030300F0C480083A2D
:103BF000C0F0088051F8043B083A51F804CBA0E823
:103C00000810F5E7121D5CBF51F8043B40F8043B77
:103C1000AFF30080D20724BF11F8013B11F801CBAC
:103C200048BF11F8012B24BF00F8013B00F801CB7D
:103C300048BF00F8012B70474FF000020429C0F084
:103C4000128010F0030C00F0CA80CCF1040CBCF11F
:103C5000020F18BF00F8012BA8BF20F8022BA1EB20
:103C60000C0100F0BCB85FEAC17C24BF00F8012B56
:103C700000F8012B48BF00F8012B704770477047D0
:103C8000704770472DE9F0470D4699469246044625
:103C900000F124080168880604D5E06921F01001CC
:103CA000216000E00120A84202DDA0EB050700E052
:103CB0000027A16907EB050202EB0900A1EB000058
:103CC000A0612078C00602D42046FFF783FE0026BC
:103CD00008E0D4E901211AF806009047206A401C48
:103CE000761C20624E45F4DB2078C0060AD52046BB
:103CF000FFF770FE06E0D4E9012130209047206AEA
:103D0000401C2062381EA7F10107F4DC07E0D4E96B
:103D1000012118F805009047206A401C2062281EE7
:103D2000A5F10105F3DC2046FFF76BFE20780006C5
:103D300002D50220BDE8F0870120FBE701694A1C9B
:103D400002610878704700B58FB0CDE901310021DC
:103D5000059105497944CDE9031011466846FFF7FE
:103D60009FFE0FB000BD0000E5FFFFFF0A6802F8EC
:103D7000010B0A60704710B5203AC0F00B80B1E823
:103D80001850203AA0E81850B1E81850A0E8185090
:103D9000BFF4F5AF5FEA027C24BFB1E81850A0E899
:103DA000185044BF18C918C0BDE810405FEA827CB3
:103DB00024BF51F8043B40F8043B08BF7047D207CA
:103DC00028BF31F8023B48BF11F8012B28BF20F86B
:103DD000023B48BF00F8012B70474FF0000200B5CE
:103DE000134694469646203922BFA0E80C50A0E81E
:103DF0000C50B1F12001BFF4F7AF090728BFA0E8CC
:103E00000C5048BF0CC05DF804EB890028BF40F897
:103E1000042B08BF704748BF20F8022B11F0804FD9
:103E200018BF00F8012B7047754600F029F8AE4620
:103E300005006946534620F00700854618B020B5B6
:103E4000FDF752FEBDE820404FF000064FF000079E
:103E50004FF000084FF0000B21F00701AC46ACE832
:103E6000C009ACE8C009ACE8C009ACE8C0098D469F
:103E700070470446AFF300802046FCF7B5F9000018
:103E800000487047103B002030380A2801D201203A
:103E900070470020704700002E2E2E616E64206156
:103EA0002053797374656D2052657365742077694A
:103EB0006C6C2062652067656E6572617465642054
:103EC000746F2072652D6C6F616420746865206E5C
:103ED0006577206F7074696F6E2062797465730DF9
:103EE0000A0000000A0A0D2050726F6772616D6D42
:103EF000696E6720436F6D706C65746564205375DF
:103F0000636365737366756C6C79210A0D2D2D2DB5
:103F10002D2D2D2D2D2D2D2D2D2D2D2D2D2D2D2DD1
:103F20002D2D2D2D2D2D2D2D2D2D2D2D2D0D0A2011
:103F30004E616D653A200000583F000800000020E7
:103F4000C41000006C010008E03F0008C41000200D
:103F5000AC300000A8010008ED006C697563686171
:103F60006F6E75616194A24A04091501020304068B
:103F700007080909FF616263646566676801FF01FC
:103F8000FF01FF01FF01FF01FF01FF01FF01FF0131
:103F9000FF01FF01FF01FF01FF01FF0119996D6E94
:103FA0006F707172737442B046ED190008B1460526
:103FB0001A0008B2460D1A0008B346151A0008B4D4
:103FC00005131D1A00080011150102030401020364
:103FD000040607080902040608B50108000882045F
:0400000508000131BD
:00000001FF
